:020000040800F2
:10280000E0250020292B0008C3760008615200084B
:10281000BF760008D946000845A100080000000066
:102820000000000000000000000000007B8B00089A
:102830004949000800000000BF2A00089D910008D7
:10284000432B0008432B0008432B0008432B0008B0
:10285000432B0008432B0008432B0008432B0008A0
:10286000432B0008432B0008094B0008432B0008AA
:10287000432B0008432B0008432B0008432B000880
:10288000432B0008432B0008432B0008432B000870
:10289000432B0008432B0008432B0008432B000860
:1028A000432B0008432B0008432B0008432B000850
:1028B000C1920008E592000801930008432B00082C
:1028C000432B0008432B0008432B0008432B000830
:1028D000432B0008B19C00088D9D0008432B000885
:1028E000432B0008432B0008432B0008432B000810
:1028F000432B0008432B0008432B0008432B000800
:10290000432B0008432B0008432B0008432B0008EF
:10291000432B0008432B0008432B0008432B0008DF
:10292000432B0008432B0008432B0008432B0008CF
:1029300000F002F800F07DF80AA090E8000C824454
:102940008344AAF10107DA4501D100F072F8AFF231
:10295000090EBAE80F0013F0010F18BFFB1A43F07D
:1029600001031847902E0100B02E01000A444FF0D9
:10297000000C10F8013B13F0070408BF10F8014BDE
:102980001D1108BF10F8015B641E05D010F8016B23
:10299000641E01F8016BF9D113F0080F1EBF10F887
:1029A000014BAD1C0C1B09D16D1E58BF01F801CBAA
:1029B000FAD505E014F8016B01F8016B6D1EF9D52D
:1029C0009142D6D370470000002300240025002642
:1029D000103A28BF78C1FBD8520728BF30C148BF82
:1029E0000B607047662912F0F483652912F0F183B9
:1029F000642900F08181782900F0BA81732900F000
:102A00004287002070471FB59DE8030000F064FC7A
:102A100000F042FF04000020002111F0D5FB401C13
:102A200060600020002111F0E5FBE0601FBD10B5E3
:102A300010BD01F04EF81146FFF7E5FF0CF04EF91E
:102A400001F06CF803B4FFF7F2FF03BC07F007FED8
:102A5000EFF30980704780F309887047EFF308802F
:102A6000704780F30888704740BA7047C0BA704713
:102A7000EFF3108072B6704780F310887047224CD5
:102A8000224D25604FF0000484F30988204C4FF05C
:102A9000010525701F4C4FF08055256062B6FEE79A
:102AA00030B41C4C4FF08055256030BC704730B4BA
:102AB000184C4FF08055256030BC704700BF72B68F
:102AC000EFF3098028B1203880E8F00F1249096837
:102AD0000860124812490A7802700F4811490A68C2
:102AE0000260106890E8F00F203080F309884EF003
:102AF000040E62B67047B0FA80F0704790FAA0F00A
:102B00004FEA10407047000020ED00E00000FFFF9A
:102B10003C01002004ED00E04801002040010020BD
:102B2000440100204C010020094880470948004723
:102B3000FEE7FEE7FEE7FEE7FEE7FEE7FEE7FEE76D
:102B4000FEE7FEE704480549034A054B70470000CD
:102B50006192000831290008E0230020E0250020D0
:102B6000E0230020704770B5064600F099FB056829
:102B700006F10B0020F00704B4429CBF002070BD9A
:102B80002B466A68BAB11068A04210D304F108015C
:102B900088423CBF5068586007D3516810194160A3
:102BA0001168091B016058601460101D70BD134648
:102BB0005268002AE7D12146284600F079FB002818
:102BC000DED170BD70B50446051F00F069FB0068DA
:102BD000002C14BF446870BD002C18BFAC423CBF31
:102BE00020466468F8D301680A18AA4218BF4560F5
:102BF00003D12A6805461144016028684119A142A1
:102C00001CBF6C6070BD6168696021680844286001
:102C100070BD10B5044600F03BFB0068005DC006C7
:102C200002D504F1200010BD204610BD0FB41CB524
:102C3000084B06AA7B4469460090059800F0F9FD10
:102C400004460020694600F007FE20461CBC5DF8E3
:102C500014FB0000210C000070B504468569006873
:102C6000C10601D5302600E02026C00707D070BD80
:102C7000D4E9012130469047206A401C20626D1E35
:102C8000F6D570BD70B5044685690078C00707D1D8
:102C900070BDD4E9012120209047206A401C2062A9
:102CA0006D1EF6D570BD70B50C460546012A05D0DF
:102CB0002878800600D5EA69002302E0012305E0B8
:102CC0005B1C934202D2E05C0028F9D1A869E618A7
:102CD000C01AA861286A184428622846FFF7BCFF7A
:102CE00004E0D5E9012114F8010B9047B442F8D370
:102CF0002846FFF7C7FF70BD2DE9F04106460024C6
:102D000010687529314616A510D0AFF30080002851
:102D100002DA404213A507E031688A0701D512A5FF
:102D200002E0490704D511A5012401E0AFF30080BA
:102D300000210A2206F1240709E0B0FBF2FCB0FBF7
:102D4000F2F302FB1C00303078541846491C00286E
:102D5000F3D123462A463046BDE8F04100F0FDBAE3
:102D6000000000002D0000002B00000020000000EB
:102D700070B504460D4621461068AFF300802188E7
:102D8000090502D50F4A7A4402E00E4A7A440E320F
:102D9000002104F1240305E000F00F060009965D10
:102DA0005E54491C0028F7D120780023000704D581
:102DB000702D02D009B1022311322046BDE87040C7
:102DC00000F0CBBA262801002DE9F05F89460446C1
:102DD0004FF0000ADFF824B1FB44C0F820A02046E1
:102DE000E168884700287DD0252806D0D4E9012154
:102DF0009047206A401C2062F1E700255F4620468C
:102E0000E16888472028064607DB312E05D2B8192D
:102E100010F8200C08B10543F1E7A80701D525F00B
:102E20000405C4F81CA00027C4F818A02A2E09D055
:102E3000304607F00DFC38B304EB8708303EC8F885
:102E4000186019E059F8041B204604EB87029161D1
:102E5000E1688847012F064618D1E069002820DA8A
:102E600025F020051DE0D8F8180000EB800006EBE7
:102E700040003038C8F818002046E1688847064608
:102E800007F0E6FB0028EED1012F0AD02E2E08D144
:102E90002046E16888477F1C0646022F45F0200542
:102EA000C4DBA069002803DA404245F00105A061B7
:102EB000E80701D025F01005A6B1A6F141001928B8
:102EC00002D8203645F400654A4631462046256042
:102ED0004D46FFF787FD60B1012807D0ED1D25F0B5
:102EE000070000E007E000F1080978E705F10409B0
:102EF00075E730467AE7206ABDE8F09FFC270100BD
:102F0000401ECAB210F8011F8A4202D00029F9D12E
:102F10000020704740EA0103024630B59B0710D1FC
:102F20004FF0013400E008C208C91D1B9D4315EA9B
:102F3000C41FF8D013F0FF0102F8011B0DD01B0ACB
:102F4000F8E711F8013B002B02F8013B05D011F81E
:102F5000013B002B02F8013BF3D130BD10B5431CFF
:102F600002E010F8011B71B18107FAD14FF0013274
:102F700002C88C1A8C4314EAC211F9D0C01A0A068E
:102F800003D0C01E10BDC01A10BD0A0401D0801E9F
:102F900010BD0902FCD0401E10BD40EA010370B50F
:102FA0009B072ED14FF00136042A2AD308C810C936
:102FB0009D1B9D43121F15EAC61517D0D8B2E1B26A
:102FC000401A50EA056110D198B2A1B2401A50EAF5
:102FD00005410AD123F07F4024F07F41401A50EA96
:102FE000052102D1180EA0EB146070BDA342DBD006
:102FF00018BA21BA884201D9012070BD4FF0FF30C4
:1030000070BD0AB9002070BD10F8013B11F8014BEA
:1030100063B1A3420AD1521E08D010F8013B11F847
:10302000014B1BB1A34201D1521EEDD1181B70BD43
:10303000032A40F2308010F0030C00F0158011F8E4
:10304000013BBCF1020F624498BF11F801CB00F8BC
:10305000013B38BF11F8013BA2F1040298BF00F810
:1030600001CB38BF00F8013B11F0030300F02580CD
:10307000083AC0F0088051F8043B083A51F804CBF4
:10308000A0E80810F5E7121D5CBF51F8043B40F8BA
:10309000043BAFF30080D20724BF11F8013B11F8C5
:1030A00001CB48BF11F8012B24BF00F8013B00F809
:1030B00001CB48BF00F8012B704710B5203AC0F093
:1030C0000B80B1E81850203AA0E81850B1E8185029
:1030D000A0E81850BFF4F5AF5FEA027C24BFB1E866
:1030E0001850A0E8185044BF18C918C0BDE81040D7
:1030F0005FEA827C24BF51F8043B40F8043B08BFE0
:103100007047D20728BF31F8023B48BF11F8012BA6
:1031100028BF20F8023B48BF00F8012B70474FF052
:1031200000020429C0F0128010F0030C00F01B8094
:10313000CCF1040CBCF1020F18BF00F8012BA8BFA2
:1031400020F8022BA1EB0C0100F00DB85FEAC17C66
:1031500024BF00F8012B00F8012B48BF00F8012B19
:1031600070474FF0000200B513469446964620394A
:1031700022BFA0E80C50A0E80C50B1F12001BFF430
:10318000F7AF090728BFA0E80C5048BF0CC05DF896
:1031900004EB890028BF40F8042B08BF704748BFE4
:1031A00020F8022B11F0804F18BF00F8012B704758
:1031B00010B5044610F0030F08BF11F0030F40F0E4
:1031C00015804FF0013E121FC0F20E8051F8043BF3
:1031D000A3EB0E0C2CEA030C1CEACE1C08BF40F833
:1031E000043BF0D0A1F1040102F10402521E08DBFD
:1031F00011F8013B002B00F8013BF7D11146FFF716
:103200008EFF204610BD00004FF0013C50F8042B0B
:1032100051F8043B9A4221D1A2EB0C03934313EAE9
:10322000CC1317D150F8042B51F8043B9A4215D116
:10323000A2EB0C03934313EACC130BD150F8042BED
:1032400051F8043B9A4209D1A2EB0C03934313EAD1
:10325000CC13DBD04FF00000704700BFD01A01BA8A
:10326000B1FA81F101F0180122FA01F0CB40C1F16D
:103270002001DBB2C0B2C01A2CFA01F3D11A91437B
:1032800011EAC311E6D17047704770477047704725
:1032900010B500F001FB001D10BD00BF2D0F010097
:1032A000004870478423002070477047704770477C
:1032B00038B504460A4600206946AFF3008000286E
:1032C00008BF38BD02460099204600F0EDFA012003
:1032D00038BD012000F0F6BBF8B5AFF3008005461D
:1032E00000200C46102000BF0646A819A0420DD9A8
:1032F000324669460020AFF30080070008BF00F0A7
:10330000E1FB0098A04218BF0546C419FFF7C8FFAB
:1033100005600746F01D20F007004619284600F01A
:103320000AF8B44208BFF8BDA21B31463868BDE8B0
:10333000F84000F0B9BA00210160C0E901107047FF
:103340001020704710B500F0ABFA006810BD10B542
:10335000044600F0A5FA046010BD2DE9F0470D46C3
:1033600099469246044600F124080168880604D56F
:10337000E06921F01001216000E00120A84201DD98
:10338000471B00E00027A1697A1902EB0900081A1F
:10339000A0612078C00602D42046FFF75DFC00261D
:1033A00008E0D4E901211AF806009047206A401C81
:1033B000761C20624E45F4DB2078C0060AD52046F4
:1033C000FFF74AFC06E0D4E9012130209047206A4B
:1033D000401C2062381EA7F10107F4DC07E0D4E9A5
:1033E000012118F805009047206A401C2062281E21
:1033F000A5F10105F3DC2046FFF744FC2078000628
:1034000002D50220BDE8F0870120FBE770472DE9D7
:10341000FF4F0C461E464FF0FF378BB0D2E900013C
:10342000DDF860800A908A46C1F30A5505B93D4629
:10343000002108464FF00000BAF1000F00F44000F0
:1034400005DA00EB80004FF4400101EA50004FEA3A
:103450009059B9F1010F00DDB9460A9850EA4A00C7
:103460000ED044F61050A5F2FF3545432F14B8F1A5
:10347000000F1ED07542291E1EDDC9F100021CE09E
:10348000B8F1010F4FF0000001D0302103E0F2430A
:1034900005E02154401CB042FBDB304600220021F5
:1034A00021540B99C1F80880C1E900200FB0BDE894
:1034B000F08FBD1B6D1CDEE74A4600DA694206A8A4
:1034C00000F092FA06AB93E8070003AB83E807002D
:1034D00050460A9900F06FFB8DE80700A0F50050F8
:1034E0001F3800900398002D09DD42F21F014A4663
:1034F000084403A90390684600F0CEFD08E0A0F55B
:1035000000504A461F3803A90390684600F0D8FDD2
:103510008DE807000004000C03D04FF0FF30410895
:1035200000E01046B8F1000F03D0002200921546CB
:103530001EE0751E05D400F0D1F9303262556D1EC3
:10354000F9D5B3460122084302D000227F1C04E0D3
:103550002078302801D100227F1E002A099786D0CA
:103560001DE0112D07DA00F0B9F9303262556D1CFB
:1035700050EA0102F5D1084302D00098C8B10EE02C
:103580000021681E05E0235C625C63542254401EE7
:10359000491C8142F7DBAB46A81B401E0990002066
:1035A00004F80B000B98099AC0F80880C0E9002BBA
:1035B0007CE711264FF0000859E72DE9F04F8846C7
:1035C0000446D21D22F0070191B0D1E90001CDE9F6
:1035D0000A0106F0B3FF02460B98C00F01D02D2060
:1035E00007E02068810701D52B2002E0202101EAB5
:1035F000C000032A099001D0072A05DB0346414693
:10360000204600F0B1F90BE12078800601D5E06991
:1036100000E00620B8F1650F814606D0B8F1660FCC
:1036200018D0B8F1670F70D131E00020B9F1110F57
:10363000009001DB112301E009F101030AAA01A9AD
:103640000CA8FFF7E4FEDDE90C70002609F1010586
:10365000834647E001204B4600904FF000470AAAFE
:1036600001A90CA8FFF7D3FEDDE90DB00C995D466A
:10367000002610B909F101000D18B9EB050003D4BB
:10368000C0F1FF3609F10105A5EB09002BE0B9F106
:10369000010F01DA4FF001090020B9F1110F00907C
:1036A000484601DD112300E003460AAA01A90CA83F
:1036B000FFF7ADFEDDE90C704D460026834620780D
:1036C00000070AD4AB4500DA5D4601A8012D04DDF0
:1036D000411911F8011C302907D04F4502DA17F1C2
:1036E000040F04DA012082460FE06D1EEEE7002F82
:1036F00002DCED1B3E4403E0781CA84200DD7D1C8B
:10370000B81B00F1010A4FF000472078000703D4EE
:10371000AA4501DB4FF0FF3A0021B7F1004F0DF150
:1037200043088DF8431024D002202B23002F01DA08
:103730007F422D230A21021EA0F1010000DC5FB1AF
:1037400097FBF1FC97FBF1F201FB1C7C17460CF197
:10375000300C08F801CDEEE7A8F1010003702188D4
:10376000090501D5452100E06521A0F1010800F817
:10377000011C09980FA9A1EB0807FF1D00B101204A
:10378000411901EBEA70A1693844081A401EA06192
:103790002078C00602D42046FFF75EFA099828B1C7
:1037A000D4E901219047206A401C20622078C0069D
:1037B00022D52046FFF750FA1EE0002E04DBB34569
:1037C00002DD01A8805D00E03020D4E901219047AE
:1037D000206A401C2062761CAAF101005FEA000A00
:1037E0000AD100F059F8C0680168405CD4E90121B1
:1037F0009047206A401C2062281EA5F10105DCDCF0
:1038000007E0D4E9012118F8010B9047206A401C19
:103810002062381EA7F10107F3DC2046FFF732FAD9
:10382000032011B043E6000001694A1C02610878D8
:10383000704700B58FB0CDE90131002105910549F0
:103840007944CDE9031011466846FFF7BDFA0FB081
:1038500000BD0000E5FFFFFF0A6802F8010B0A60E7
:10386000704710B5436913B1AFF3008001E0FFF773
:103870001AFA012010BD127800F124010A7000220A
:103880004A700122EDE711684FF0FF32E9E70000CE
:10389000004870477C230020004870479C2300208C
:1038A000004870477C230020034640688C4600286F
:1038B00018BF88423CBF03464068F8D318681844D4
:1038C000884207D00CF1030020F00700001D411AC8
:1038D000521A0146081D0A60FFF774B930B5B0F1FD
:1038E0000A024FEA900E71F100034EEA817EB0EBBE
:1038F0000E0061EB91014FEA101E4EEA017E10EBC3
:103900000E0041EB11114FEA102E4EEA016E10EB42
:103910000E0041EB11214FEA104E4EEA014E10EB22
:103920000E0041EB1141401841F100014FEAD00077
:1039300040EA41704FEAD10110EB80054FEA810463
:1039400044EA907444EB01046D1944EB0404521BE7
:10395000A3414FF0000348BF0A3200D530BD401CE0
:1039600041F1000130BD00002DE9F0411F46044641
:1039700003260168072A01F4006004DB08B116A5DC
:1039800005E016A503E008B115A500E015A521F096
:1039900010002060A069C01EA0610FB1401EA06190
:1039A0002046FFF759F94FB1D4E901213846904735
:1039B000206A401C2062C01C206206E0206AFAE7F0
:1039C000D4E9012115F8010B9047761EF8D2204664
:1039D000FFF758F9BDE8F0814E414E006E616E0070
:1039E000494E4600696E66002DE9F047814616464D
:1039F0008AB0334878440DC88DE80D0030487844CB
:103A0000801C03AC0DC884E80D0041F69B300844CF
:103A1000372190FBF1F290FBF1F5A5F1800501FB58
:103A200012041B3C02D56442012000E00020DFF8B4
:103A300090A080460027FA44AAF1BE0A0DE0E007F4
:103A400009D03246684607EB47010AEB810100F0D6
:103A500037FB8DE8070064107F1C002CEFD1184F56
:103A60007F44AC3F18E0E80714D007EB04100DF1D9
:103A7000180A90E80E008AE80E00C068F04201D1F2
:103A800098190890324606A903A800F019FB03AB69
:103A900083E807006D10641C002DE4D132466946AE
:103AA000B8F1000F03A802D000F0F6FA01E000F030
:103AB00007FBC9E90001C9F808200AB0BDE8F08792
:103AC000041D010010B500F035F8BDE8104000F00D
:103AD0002BB87546FFF7DCFEAE4605006946534637
:103AE00020F00700854618B020B5FFF72BF8BDE899
:103AF00020404FF000064FF000074FF000084FF055
:103B0000000B21F00701AC46ACE8C009ACE8C009E5
:103B1000ACE8C009ACE8C0098D4670470446AFF375
:103B200000802046FEF78EFF002801D006F097BDEA
:103B30007047000010B5012805D0002103A000F057
:103B400021F8012010BD09A1F8E7000053494752B0
:103B5000544D454D3A204F7574206F66206865615D
:103B600070206D656D6F7279000000003A20486525
:103B70006170206D656D6F727920636F7272757000
:103B80007465640070B505460C460A2000E06D1CA3
:103B900006F069FD35B128780028F8D102E0641CF0
:103BA00006F061FD14B120780028F8D1BDE870401E
:103BB0000A2006F058BD5FEA400C08BF91F0000FE4
:103BC0004FEA8C234FEAC12243EA51514FEA1C507D
:103BD00018BF00F5F0404FEA300018BF41F0004137
:103BE0005FEA6C5C00F02980BCF1FF3F08BF40F049
:103BF00080407047130C06BF12044FF0100C4FF0BA
:103C0000000C130E04BF12020CF1080C130F04BFBA
:103C100012010CF1040C930F04BF92000CF1020C82
:103C2000D30F04BF52000CF1010C11464FF00002FB
:103C3000A0F11F00A0EB0C00704711F0004F08BF6F
:103C4000704731F000413FF4D5AF0B0C06BF0904BB
:103C50004FF0100C4FF0000C0B0E04BF09020CF1DA
:103C6000080C0B0F04BF09010CF1040C8B0F04BFEF
:103C700089000CF1020CCB0F04BF49000CF1010CC0
:103C8000CCF12003A0EB0C0022FA03F302FA0CF2B1
:103C900041EA030100F10100704720F07F4C80EA07
:103CA000030023F07F47ACEB070303F57C5300F0E0
:103CB000004003F1FF032DE980494FEA154B09B499
:103CC0004FEA144325EA0B4E24EA03480FF2042678
:103CD00006EB132749083E785FEA320203FB0667CA
:103CE000C7F5000707FB06F64FEA54374FEAD646FA
:103CF00006F1020607FB066CCCF1005C4FEA1C479C
:103D00002CEA074C07FB06F40CFB06F504EB154602
:103D10004FEA961634BF00204FF000404FEAD137EB
:103D200006FB07FC4FEA1C4C0CFB0BF7D21B03FBFA
:103D30000CF761EB07010CFB0EF7B0EB074072EBE1
:103D400017420CFB08F734BFA2EB0742B2EB074265
:103D500061EB17414FEA0C444FEA910706FB07FC61
:103D60004FEA1C4C0CFB0BF7B0EBC74072EB573221
:103D700003FB0CF734BFA2EBC742B2EBC74261EBC7
:103D800057310CFB0EF7B0EBC70072EB57720CFB10
:103D900008F734BFA2EBC702B2EBC70261EB577161
:103DA000039F4FEA816141EA921104EBCC044FEA90
:103DB000D1374FEA826206FB07FC42EA90124FEAD3
:103DC00080604FEA1C4C0CFB0BF7D21B03FB0CF77B
:103DD00061EB07010CFB0EF7B0EB074072EB1742EB
:103DE0000CFB08F734BFA2EB0742B2EB074261EBD2
:103DF00017414FEA8C554FEA910704EB9C2406FBD0
:103E000007FC4FEA1C4C0CFB0BF7B0EBC74072EB06
:103E1000573203FB0CF734BFA2EBC742B2EBC742E9
:103E200061EB57310CFB0EF7B0EBC70072EB57722A
:103E30000CFB08F734BFA2EBC702B2EBC70261EB81
:103E4000577115EB4C254FEA816141EA92114FEA17
:103E500082624FEAD13742EA901206FB07FC44F136
:103E600000044FEA80604FEA1C4C0CFB0BF7D21B9E
:103E700003FB0CF761EB07010CFB0EF7B0EB0740FF
:103E800072EB17420CFB08F734BFA2EB0742B2EB10
:103E9000074261EB174115EB1C154FEA813141EAEE
:103EA00092414FEA823242EA90424FEA80304FEA32
:103EB0000C7644F1000448EA03434EEA0B484FF005
:103EC000000EB2EB080C71EB030724BF62463946C3
:103ED0004EEB0E0E4FF0000B0018524149414BEBD8
:103EE0000B0BB2EB080C71EB03077BF1000B24BF4B
:103EF000624639464EEB0E0E4FF0000B0018524151
:103F000049414BEB0B0BB2EB080C71EB03077BF158
:103F1000000B24BF624639464EEB0E0E51EA0207F3
:103F200018BF46F0010616EB0E7655F1000254F16B
:103F3000000103D5BDE88901BDE80088BDE889011D
:103F4000BDE80048B619524141EB0101A3F101035C
:103F5000704780807F7E7D7C7B7A797877767675F6
:103F60007473727171706F6E6E6D6C6C6B6A6A696E
:103F70006868676666656464636362616160605F08
:103F80005F5E5E5D5D5C5C5B5B5A5A595958585781
:103F900057565655555554545353525252515150E9
:103FA00050504F4F4F4E4E4D4D4D4C4C4C4B4B4B3C
:103FB0004A4A4A4949494848484747474746464682
:103FC00045454544444444434343434242424241BD
:103FD0004141002B26D4770021D01CB54FEA37078A
:103FE00003B44FF010004FF010014FF000000FBC71
:103FF000BDE810400BF1010BBBF1010F08BF5FEAF8
:10400000170722BF12F1010211F101014FF0004127
:1040100043F1000300F0004043EA00007047F9D389
:104020005708DAE746EA064613F1400F4FEA16460C
:104030001FDD13F1200FDFBF16430A460021203396
:104040005B42C8D0C3F1200746EA064602FA07F7EA
:104050004FEA164646EA0706C3F1200722FA03F2A2
:1040600001FA07F721FA03F14FF0000342EA0702D1
:10407000B1E746EA020646EA06464FEA164646EA2F
:104080000106BCBF46EA0646360C4FF000034FF06F
:1040900000024FF000019EE72DE9C048934630B47E
:1040A00091E8380007C831EA400C48BF34EA430CB5
:1040B00003D5FFF7F2FDFFF78CFFF0BCBDE80088E9
:1040C0002DE9C048934630B491E8380007C810F095
:1040D000804F08BF13F0804F03D100F005F8FFF7C1
:1040E00078FFF0BCBDE8008820F07F4780EA03003D
:1040F00023F07F4C07EB0C03A3F57C5300F000404A
:10410000A3F1FE0392F0000F00F0B38095F0000FD2
:1041100000F077802DE901494FEA11404FEA14463B
:1041200021EA004800FB06FC24EA064708FB06F6E5
:1041300007FB08F800FB07F718EB06484CEB164C9A
:104140004FEA124B18EB07484FEA15464CEB174065
:1041500022EA0B4E0BFB06FC25EA06470EFB06F691
:1041600007FB0EFE0BFB07F71EEB064E4CEB164C47
:104170004FF000061EEB074E4CEB174B18EB0B08ED
:1041800040F1000018EB0E0B58EB000840F1000066
:104190008F1A4FF000013CBFC943661B14BFB5EB3B
:1041A000040C00213CBFC943F61B4FEA17444EEAFA
:1041B0008E0E27EA04454FEA1C4704FB07622CEAEF
:1041C000074C05FB07F70CFB05F604FB0CFC16EB94
:1041D000074642EB174216EB0C4642EB1C421BEB28
:1041E000060658EB0202414146EA9E0601D5BDE8AB
:1041F0000189B619524141EB0101A3F10103BDE868
:1042000001894FEA14454FEA114724EA054621EA9D
:10421000074C05FB07F406FB07F70CFB06F105FB53
:104220000CFC11EB074144EB17444FEA124711EB2A
:104230000C4144EB1C4422EA074C05FB07F206FB49
:1042400007F70CFB06F605FB0CFC16EB074642EBEA
:10425000174216EB0C4642EB1C456A1854F100015C
:1042600048BF7047B619524141EB0101A3F1010368
:10427000704795F0000F37D04FEA11424FEA1447CC
:1042800021EA024624EA074C02FB07F106FB07F786
:104290000CFB06F402FB0CFC14EB074441EB17414A
:1042A0004FEA154714EB0C4441EB1C4125EA074C3F
:1042B00002FB07F506FB07F70CFB06F602FB0CFCFE
:1042C00016EB074645EB174516EB0C4645EB1C4233
:1042D000121951F1000148BF7047B619524141EB24
:1042E0000101A3F1010370474FEA14454FEA11475A
:1042F00024EA054621EA074C05FB07F106FB07F710
:104300000CFB06F24FF0000605FB0CFC12EB07421B
:1043100041EB174112EB0C4251EB1C4148BF704777
:10432000921841EB0101A3F10103704710B5094850
:10433000408C012803D100200649488402E0012076
:1043400004494884034890F82210062009F090FEA2
:1043500010BD0000341B00201CB50EA103C9CDE91F
:1043600000010E48808A01280AD100208DF807003C
:104370000821684601F06EF900200849888208E0AB
:104380000120064988828DF807000821684601F05F
:1043900061F91CBD5AA5058210090000341B0020DC
:1043A00008B50121102003F0DDFA4FF40050ADF8FC
:1043B000000010208DF8030002208DF802006946ED
:1043C000054800F021FD002003F056FB4FF400519A
:1043D000014800F0F1FD08BD001001400EB50020BD
:1043E00000900190029003208DF8000002208DF8CB
:1043F000010000208DF802008DF8030002208DF8E6
:1044000004008DF80500694605200EF0E1FF0EBDA1
:104410000EB5002000900190029002208DF800005F
:104420008DF8010000208DF802008DF803000220B5
:104430008DF804008DF80500694605200EF0C8FFD0
:104440000EBD0EB5002000900190029004208DF862
:10445000000002208DF8010000208DF802008DF888
:10446000030002208DF804008DF805006946052040
:104470000EF0AEFF0EBD0EB5002000900190029030
:1044800005208DF8000002208DF8010000208DF835
:1044900002008DF8030002208DF8040001208DF841
:1044A0000500694605200EF093FF0EBD0EB50020F5
:1044B00000900190029002208DF800008DF801001C
:1044C00000208DF802008DF8030002208DF8040012
:1044D00001208DF80500694605200EF079FF0EBD1C
:1044E0007FB505460024394B0FCB8DE80F003848C7
:1044F0000078012800D17FBD0120354908704FF4B4
:1045000016700CF007F9334908600846006800B9D6
:10451000F1E74AE0287830383DF8100061002D4A74
:10452000126822F8110068785F280DD16100294ACD
:10453000126832F8110000EBD07149106200254B6F
:104540001B6823F8121010E068787E280DD16000F7
:104550002049096831F810004FF6FF7101EA400068
:1045600061001C4A126822F81100A879303808212D
:1045700091FBF0F0012101EB4401164A126822F888
:104580001100012000EB44001249096831F81000C5
:10459000297930394843012101EB44010D4A126861
:1045A00022F811000835601C84B228780028B1D1A7
:1045B000012101EB4401074A126822F81100012190
:1045C000880704F06CFF00BF95E70000C85201089F
:1045D000B4000020B800002010B538480088400022
:1045E0003749096831F81000364991FBF0F4364834
:1045F0000068401C3449086034480068401C334956
:10460000086064B1601F30490968884203D2012004
:104610002F49086006E000202D49086002E00020D4
:104620002B4908602548008840002549096831F871
:104630001000244991FBF0F023490968884202D810
:104640000020214908601D480088012101EB40003D
:104650001B49096831F8100040F2712148431B4999
:104660000968B1EB001F28D314480088401C134987
:10467000088000201549086010480088012101EBDE
:1046800040000F49096831F81000B0B900200B490B
:1046900008800E4908600C490860094800680CF061
:1046A00025F8002006490860094908600949087092
:1046B00000214FF0804004F0F2FE10BDBC0000204D
:1046C000B8000020A0860100C4000020C000002027
:1046D000B4012242B400002003F042F80246002157
:1046E000012109E04B00084830F81300904201D145
:1046F00001207047481C81B24B00034830F813007A
:104700000028EFD100BFF4E75C1B0020002000BFB1
:1047100004E00021034A1154411C88B23A28F8DB16
:1047200070470000E51A00207FB505460C460026BC
:1047300000200190029003900090FF208DF804006B
:104740008DF8050028128DF80600E8B28DF80700F4
:1047500001208DF8080000208DF8090002208DF856
:104760000A0000208DF80B0010208DF80C006A461E
:10477000092101A800F0DEFC9DF800008DF80D0075
:104780009DF801008DF80E000B2101A803F08EF9B1
:1047900000BF30E0C82007F0C7FC1921204603F015
:1047A000CBF930B3A079C11D6A46204600F0C2FCA7
:1047B0009DF80010A079C01D205C814219D19DF8A0
:1047C0000110A0790830205C814212D1E078A178F4
:1047D00040EA0120A8420CD120799DF8081041F050
:1047E0008001884205D1207AE17940EA012004B0B5
:1047F00070BD701CC6B2052ECCDB0A20F7E72DE990
:10480000F0418EB004460D4616461F464FF0000894
:10481000002002900390049005900190FF208DF8F5
:1048200008008DF8090020128DF80A00E0B28DF81A
:104830000B0003208DF80C0000208DF80D000320E4
:104840008DF80E008DF80F508DF810608DF81170F6
:1048500001AA0A2102A800F06DFC9DF804008DF861
:1048600012009DF805008DF813000C2102A803F03A
:104870001DF900BF3DE0C82007F056FC182106A82E
:1048800003F05AF980B39DF81E00C11D01AA06A8C5
:1048900000F050FC9DF804109DF81E00C01D06AAF3
:1048A000105C814221D19DF805109DF81E00083052
:1048B000105C814219D19DF81B009DF81A1040EA46
:1048C0000120A04211D19DF81C009DF80C1041F070
:1048D0008001884209D19DF820009DF81F1040EA10
:1048E00001200EB0BDE8F081FFE708F101001FFADA
:1048F00080F8B8F1050FBEDB0A20F2E72DE9F0479A
:1049000006460F4690461C464FF0004020FA04F53C
:104910000C480068284010B10120BDE8F087094824
:10492000006828430749086000234246394630465C
:1049300002F054FF814622464946304602F0D2FF3B
:104940000020EAE75C01002002F00AFF10B50446EF
:10495000A0B207F0E9FB10BDFEB504460E461546B1
:10496000002000900190029002208DF80000022C9F
:1049700052D1A6B3012D17D101208DF801008DF879
:104980000200694604200EF023FD694602200EF065
:104990001FFD00208DF8010002208DF802006946FD
:1049A00004200EF015FDADE0022DFCD101208DF8A4
:1049B000010002208DF80200694604200EF008FD77
:1049C000694602200EF004FD00208DF80100012050
:1049D0008DF80200694604200EF0FAFC92E0FFE731
:1049E00000208DF8010001208DF8020069460420A6
:1049F0000EF0EEFC694602200EF0EAFC00208DF875
:104A0000010002208DF8020069460EF0E1FC6946C3
:104A100004200EF0DDFC75E0032C01D0052C51D1F3
:104A20009EB3012D17D101208DF8010003208DF8D0
:104A30000200694604200EF0CBFC694602200EF00D
:104A4000C7FC00208DF8010004208DF802006946A3
:104A50000EF0BEFC56E0022D54D101208DF801006D
:104A600004208DF8020069460EF0B2FC694602206F
:104A70000EF0AEFC00208DF8010003208DF802003E
:104A8000694604200EF0A4FC3CE0FFE700208DF80E
:104A9000010004208DF8020069460EF099FC694679
:104AA00002200EF095FC00208DF8010003208DF807
:104AB0000200694604200EF08BFC694602200EF0CD
:104AC00087FC1FE0042C1DD176B101208DF8010078
:104AD00006208DF80200694604200EF079FC694634
:104AE00002200EF075FC0DE000208DF8010006207C
:104AF0008DF80200694604200EF06AFC6946022027
:104B00000EF066FCFEBD000070B5002400251020EC
:104B100000F072F8002860D0102000F067F800BFA5
:104B2000152003F0FDF9044604F0F001152005F00E
:104B30004DFC2A480470172003F0F2F9044604F0F3
:104B4000010070B10221002003F00CFA05462A464C
:104B50000221002005F06AFC214800782843204902
:104B6000087004F0020002280ED10221012003F097
:104B7000F9F905462A460221012005F057FC19489B
:104B8000007828431749087004F0040004280ED167
:104B90000221084603F0E6F905462A4602210846A6
:104BA00005F044FC1048007828430F49087017208E
:104BB00003F0B6F90028B3D10948007810B90948C4
:104BC000007818B10121072004F0B6FD06480078EE
:104BD00018B10121072004F0AFFD70BDC301002012
:104BE000C4010020C5010020C60100200149086061
:104BF0007047000014040140014600200022074BCA
:104C00001B6803EA0102054B14331B680B4013B108
:104C10000AB1012000E000207047000000040140BC
:104C2000002123498279002A3AD00A461268036893
:104C30009A430B461A600A1D126803689A430B1DBB
:104C40001A60027911440A6803681A430A60184A14
:104C50000832126803689A43154B08331A601A1D0C
:104C6000126803689A43124B0C331A604279102A77
:104C70000ED11A1F126803681A430D4B08331A60CD
:104C80001A1D126803681A43094B0C331A600DE0B1
:104C90000749427911440A6803681A430A6005E02B
:104CA000027911440A6803689A430A607047000059
:104CB0000004014030B5044604254FF4302000F0D4
:104CC0006FF80546042D17D10C48006940F002002A
:104CD0000A49086108464461006940F040000861E3
:104CE0004FF4302000F05CF805460448006941F6B6
:104CF000FD71084001490861284630BD002002408E
:104D000004200B49C96801F0010109B101200EE03E
:104D10000749C96801F0040109B1022007E004490C
:104D2000C96801F0100109B1032000E004207047B8
:104D3000002002400348006940F0800001490861FA
:104D4000704700000020024070B504460D4604265E
:104D5000F00200F025F80646042E11D1094800693A
:104D600040F00100074908612580F00200F018F8C2
:104D700006460448006941F6FE7108400149086191
:104D8000304670BD00200240024803494860034895
:104D9000486070472301674500200240AB89EFCD92
:104DA00000B502460423FFF7ABFF034603E0FFF71D
:104DB000A7FF0346521E012B01D1002AF7D102B9E9
:104DC0000523184600BD000030B500228B071C0FDC
:104DD0000F2303FA04F20B4B8C1053F82430934347
:104DE000084C8D1044F8253023468C1053F824309D
:104DF0008C07240F00FA04F42343024C8D1044F86E
:104E0000253030BD080001402DE9F0410246002563
:104E10000026002000230024002791F803C00CF096
:104E20000F0591F803C00CF0100CBCF1000F03D07B
:104E300091F802C04CEA050591F800C0BCF1000FE2
:104E400031D0146800202BE04FF0010C0CFA00F375
:104E5000B1F800C00CEA03069E4220D183004FF057
:104E60000F0C0CFA03F7BC4305FA03FC4CEA0404EC
:104E700091F803C0BCF1280F06D14FF0010C0CFAD9
:104E800000FCC2F814C00AE091F803C0BCF1480F5E
:104E900005D14FF0010C0CFA00FCC2F810C0401C08
:104EA0000828D1D31460B1F800C0BCF1FF0F34DD85
:104EB000546800202EE000F1080C4FF0010808FAB9
:104EC0000CF3B1F800C00CEA03069E4221D1830026
:104ED0004FF00F0C0CFA03F7BC4305FA03FC4CEA45
:104EE000040491F803C0BCF1280F05D100F1080CAF
:104EF00008FA0CF8C2F8148091F803C0BCF1480F0E
:104F000007D100F1080C4FF0010808FA0CF8C2F8BC
:104F10001080401C0828CED35460BDE8F08100000A
:104F2000F0B50A46002300240021002500F00046C9
:104F3000B6F1004F02D11D4EF16901E01B4E7168C0
:104F4000C0F3034583B200F44016B6F5401F08D104
:104F500021F07061154E766826F07066134F7E6002
:104F600012E000F48016B6F5801F06D1032606FA7B
:104F700005F4A14341F0706106E0460D360103FAE5
:104F800006F6B14341F0706122B1460D360103FAD5
:104F900006F6314300F00046B6F1004F02D1034E51
:104FA000F16101E0014E7160F0BD000000000140C0
:104FB0000146886880B2704741617047016170475F
:104FC000004870479A1A0020004870475C1B002078
:104FD0000246002100BF0DE0012000EB41000A4B1A
:104FE00013F81000904203D1480033F810007047C6
:104FF000481C81B2012000EB4100034B33F8100044
:105000000028E9D100BFF2E7680000200246002135
:10501000012110E04B000C4830F81300904208D1F9
:10502000012000EB4103084830F8130000F47F40F2
:105030007047481C81B24B00034830F81300002829
:10504000E8D1FF20F4E700005C1B002002460021AD
:1050500000BF0EE04B000B4830F81300904206D121
:10506000012000EB4103074810F813007047481C6B
:1050700081B24B00034830F813000028EAD1FF202A
:10508000F4E700005C1B002030B502460B4600210F
:105090000024012112E0012000EB41050C4810F82A
:1050A0001500904208D19C4204D14D00084830F8C8
:1050B000150030BD601C84B2481C81B2012000EB99
:1050C0004105034830F815000028E4D100BFF0E79F
:1050D0005C1B002013490988322904DA1249114A5D
:1050E0001288885C05E000210E4A11800E49128862
:1050F000885C00210D4A11600B4A0A4B1B88D15471
:105100000B49098821B10A490988491E084A1180BA
:105110000121064A116003490988491C014A11808E
:105120007047000092000020B31A0020940127422B
:1051300098000020F0B50B46FF24FF2509E010F889
:10514000016B86EA0401074E765C86EA0504064E8A
:10515000755C1E00A3F10107BBB2F0D1147055704D
:10516000F0BD0000D8520108D853010810B501461F
:105170004A1E034B985C00234A1E014CA35410BDE9
:10518000180000200148008D70470000341B0020EB
:10519000014890F88E017047341B0020004870478A
:1051A000C41C002010B50446002300BF04E00548DD
:1051B000C05CE054581C83B23A2BF8DBFFF7A6FA28
:1051C000184610BDE51A002010B52448C08B0128F0
:1051D0000ED10121084608F04BFF642006F0C0FF05
:1051E0000021022008F044FF642006F0B9FF20E00F
:1051F0001A48C08B02280ED10021012008F038FF88
:10520000642006F0ADFF0121022008F031FF642088
:1052100006F0A6FF0DE00021012008F029FF642020
:1052200006F09EFF0021022008F022FF642006F015
:1052300097FF0A48408C012807D10121062008F079
:1052400017FF642006F08CFF06E00021062008F01E
:105250000FFF642006F084FF10BD0000341B002007
:1052600002F07EFA10B50F480078642805DA0D4880
:105270000078401C0B49087013E0002009490870B1
:10528000094800883C2805DA07480088401C064980
:10529000088006E000200449088002210A2004F06A
:1052A0004BFA10BDD5010020D60100201CB50446E4
:1052B00009A103C9CDE90001E07960B9207A052888
:1052C00009D1607A0D2806D1A07AC02803D1062121
:1052D000684600F0BFF91CBD5AA503804F020000CC
:1052E00010B5FF247C48FFF763FE00F00F04ACB953
:1052F0007A48007810BB0320794908707948007813
:10530000401C7849087008460078502816DB0220B7
:10531000734908700120714908700FE071480078E6
:10532000012806DD6F480078502802DA01206C4918
:10533000087000206B49087068490870012C15D16D
:105340006648407810BB032065494870654840783E
:10535000401C6449487008464078502816DB0220FB
:105360005F49487001205D4948700FE05D48407812
:10537000012806DD5B484078502802DA01205849B0
:10538000487000205749487054494870022C15D184
:105390005248807810BB032051498870514880786A
:1053A000401C5049887008468078502816DB02203F
:1053B0004B4988700120494988700FE0494880783E
:1053C000012806DD47488078502802DA0120444948
:1053D000887000204349887040498870032C15D19B
:1053E0003E48C07810BB03203D49C8703D48C07896
:1053F000401C3C49C8700846C078502816DB022083
:105400003749C87001203549C8700FE03548C07869
:10541000012806DD3348C078502802DA01203049DF
:10542000C87000202F49C8702C49C870042C15D1B1
:105430002A48007910BB03202949087129480079BE
:10544000401C2849087108460079502816DB0220C4
:10545000234908710120214908710FE02148007992
:10546000012806DD1F480079502802DA01201C4976
:10547000087100201B49087118490871052C15D1C5
:105480001648407910BB03201549487115484079EA
:10549000401C1449487108464079502816DB022008
:1054A0000F49487101200D4948710FE00D484079BE
:1054B000012806DD0B484079502802DA012008490E
:1054C0004871002007494871044948710121084684
:1054D00004F032F910BD000000100140240000204B
:1054E000180000201E00002008B50121102002F045
:1054F00039FA0121102002F035FA0F20ADF8000032
:1055000048208DF8030003208DF802006946044806
:10551000FFF77AFC0121084602F024FA08BD0000DA
:105520000010014010B586B004460121042002F0AD
:1055300019FA0121082002F015FA0121480402F0AD
:10554000F1F94FF48050ADF8140010208DF81700D9
:1055500003208DF8160005A92A48FFF755FC042002
:10556000ADF8140018208DF8170005A92648FFF79C
:105570004BFC0820ADF8140004208DF8170005A995
:105580002148FFF741FC0121480402F0DBF900212A
:105590004FF4003002F0D6F901940020ADF8080075
:1055A000ADF80A00ADF80C00ADF810000C20ADF815
:1055B0000E0001A9154804F0DDFC26208DF800003E
:1055C00000208DF8010002208DF8020001208DF8E6
:1055D0000300684602F078F8012240F225510B489A
:1055E00004F0A3FC012240F22441084804F09DFC91
:1055F0000121064804F007FC00200549086006B0B8
:1056000010BD0000000C01400008014000440040B3
:10561000B081214230B503460C4C22780020002492
:105620000C800A4C2478A2420FD172B100BF04E072
:10563000074C245C1C54441CE0B29042F8DB034C41
:1056400024780C800024014D2C7030BD2B000020EC
:105650007C1A002070B505460E4601200F490860EF
:1056600000240CE000BF40210D4804F027FC002876
:10567000F9D0295D0A4804F0EEFC601CC4B2B442C3
:10568000F0DB00BF4021064804F018FC0028F9D0E8
:105690000020044908700149086070BDB0812142B2
:1056A000004400402B000020202801D2014908704E
:1056B000704700002A00002000B587B00020049049
:1056C0000590069001900290039003208DF8100041
:1056D00001208DF811003F208DF8120000208DF878
:1056E000130001208DF8140000208DF81500012012
:1056F0008DF8040005208DF805003F208DF8060088
:1057000001A901200DF064FE02208DF804000020A4
:105710008DF8050005208DF8060001A904200DF084
:1057200057FE04A902200DF053FE07B000BD00B5DE
:1057300087B000200490059006900190029003909D
:1057400003208DF8100001208DF8110000208DF845
:1057500012008DF8130001208DF8140000208DF840
:10576000150001208DF8040005208DF805000020AB
:105770008DF8060001A901200DF02AFE02208DF807
:10578000040001208DF8050005208DF8060001A910
:1057900004200DF01DFE04A902200DF019FE07B033
:1057A00000BD00000148408C70470000341B002001
:1057B0000146052903DA034830F81100704700203C
:1057C000FCE70000341B00200149488470470000BA
:1057D000341B00200246052A02DA024820F8121083
:1057E00000207047341B002008B50121082002F07A
:1057F000B9F80320ADF8000018208DF8030003204D
:105800008DF8020069463A48FFF7FEFA0020394950
:1058100008603949C1F8A0010121082002F0A2F86E
:105820000820ADF8000010208DF8030003208DF84B
:10583000020069462E48FFF7E7FA0121202002F016
:1058400091F80420ADF8000010208DF8030003202B
:105850008DF8020069462948FFF7D6FA0121102089
:1058600002F080F84FF48060ADF8000010208DF851
:10587000030003208DF8020069462148FFF7C4FAAF
:105880000121042002F06EF84FF40040ADF8000052
:1058900010208DF8030003208DF802006946194896
:1058A000FFF7B2FA0121082002F05CF80120ADF800
:1058B000000010208DF8030003208DF80200012164
:1058C000042002F04FF80220ADF8000010208DF8FF
:1058D000030003208DF8020069460A48FFF794FA96
:1058E00000200949086008F0E5FF08F08DFB08BDBD
:1058F000000C01409C0122420000224200140140A1
:1059000000100140000801408C81214210B50024A4
:10591000C8221849184802F0F7FF00BF1FE01548D9
:1059200030F814004FF6FF71884203D1002111486E
:1059300020F8141004F0010078B10E4810F814108B
:1059400020F8141010F8140038B10A4830F8140088
:1059500040F40061074820F81410601C84B2C82C81
:10596000DDDB04482838408D40F480710148283838
:10597000418510BD5C1B002028FC03081CB50024D9
:105980000020009001901848808BADF80000164868
:10599000C08BADF802001448008CADF8040012482A
:1059A000408CADF8060014220F49104802F0ACFFFD
:1059B00000BF0CE00C4830F814004FF6FF7188422D
:1059C00003D10020084921F81400601C84B2142C73
:1059D000F0DBBDF8000004498883BDF80200C883ED
:1059E000BDF8040008841CBD341B002000FC030823
:1059F0001CB500200090019006220F490F480AF0C4
:105A00009FFE0D49891D062268460AF099FE002076
:105A100008E00A49095C1DF800201144074A1154A6
:105A2000411CC8B20628F4DB0448007800F0FE00F0
:105A3000024908701CBD0000E8F7FF1FA10000200C
:105A400070B54FF4C8600AF065FE05462C4614A2F6
:105A500014A120460DF0AAFE083411A212A120467E
:105A60000DF0A4FE08340EA210A120460DF09EFEFB
:105A700008340BA20EA120460DF098FE08340DA2AA
:105A80000DA120460DF092FE0834204607F052FB8F
:105A90002846FEF725FD28460AF028FE70BD0000C6
:105AA000312F3200350000003400000033000000C8
:105AB00032000000312F31003100000070B54FF48A
:105AC000C8600AF027FE05462C46FEA2FEA120462D
:105AD0000DF06CFE0834FDA2FDA120460DF066FE1F
:105AE0000834FCA2FCA120460DF060FE0834FBA2A5
:105AF000FBA120460DF05AFE0834F6A2F9A120467B
:105B00000DF054FE0834F1A2F3A120460DF04EFE34
:105B10000834F0A2EEA120460DF048FE0834EDA2B4
:105B2000EDA120460DF042FE0834EAA2E8A120468D
:105B30000DF03CFE0834E3A2E9A120460DF036FE4C
:105B40000834E9A2E9A120460DF030FE0834DDA2B8
:105B5000DDA120460DF02AFE0834DCA2DCA120469F
:105B60000DF024FE0834DBA2DBA120460DF01EFE62
:105B70000834DAA2DAA120460DF018FE0834D5A2C6
:105B8000D8A120460DF012FE0834D2A2D2A12046A0
:105B90000DF00CFE0834CBA2CDA120460DF006FE80
:105BA0000834CEA2C8A120460DF000FE0834C5A2DC
:105BB000C7A120460DF0FAFD0834C8A2C8A12046AE
:105BC0000DF0F4FD0834BFA2BFA120460DF0EEFD9C
:105BD0000834BCA2C2A120460DF0E8FD0834BDA2E5
:105BE000BBA120460DF0E2FD0834BAA2BAA12046BE
:105BF0000DF0DCFD0834B9A2B5A120460DF0D6FDAC
:105C00000834B0A2B7A120460DF0D0FD0834ADA2F3
:105C1000B1A120460DF0CAFD0834ACA2ACA12046CB
:105C20000DF0C4FD0834A7A2ADA120460DF0BEFDC5
:105C30000834ADA2ADA120460DF0B8FD0834A1A2F4
:105C4000A1A120460DF0B2FD08349EA2A4A12046D9
:105C50000DF0ACFD08349BA29BA120460DF0A6FDE3
:105C6000083498A2A2A120460DF0A0FD083495A208
:105C70009BA120460DF09AFD083492A29CA12046DB
:105C80000DF094FD08348FA29AA120460DF08EFDF0
:105C9000083492A298A120460DF088FD083497A2FE
:105CA00093A120460DF082FD08348AA28CA12046E3
:105CB0000DF07CFD083489A283A120460DF076FD0D
:105CC000083480A286A120460DF070FD08347FA222
:105CD00087A120460DF06AFD08347EA281A12046EE
:105CE0000DF064FD083486A27DA120460DF05EFD16
:105CF000083478A280A120460DF058FD083475A222
:105D00007CA120460DF052FD083472A278A12046F5
:105D10000DF04CFD08346FA26BA120460DF046FD3E
:105D200008346CA277A120460DF040FD083465A22E
:105D300065A120460DF03AFD083466A268A1204610
:105D40000DF034FD083465A265A120460DF02EFD4E
:105D5000083460A262A120460DF028FD08345FA23D
:105D600059A120460DF022FD08345AA25CA120461C
:105D70000DF01CFD083453A25DA120460DF016FD68
:105D8000083450A250A120460DF010FD083451A255
:105D900054A120460DF00AFD08344EA250A1204621
:105DA0000DF004FD083447A249A120460DF0FEFC89
:105DB000083444A248A120460DF0F8FC083441A262
:105DC00043A120460DF0F2FC08344FA244A1204626
:105DD0000DF0ECFC08343FA241A120460DF0E6FC9A
:105DE00008343EA238A120460DF0E0FC083435A26C
:105DF0003BA120460DF0DAFC083434A23CA1204639
:105E00000DF0D4FC083433A236A120460DF0CEFCB0
:105E1000083430A232A120460DF0C8FC08342DA26F
:105E200035A120460DF0C2FC08342AA231A120463B
:105E30000DF0BCFC083427A22DA120460DF0B6FCC5
:105E4000083424A220A120460DF0B0FC083421A281
:105E50002CA120460DF0AAFC08341AA21AA1204653
:105E60000DF0A4FC083420A21DA120460DF09EFCDC
:105E7000083418A21AA120460DF098FC083417A285
:105E800011A120460DF092FC083412A214A1204664
:105E90000DF08CFC08340BA21CA120460DF086FCF2
:105EA00008340AA214A120460DF080FC083409A28F
:105EB00016A120460DF07AFC083408A20DA1204658
:105EC00026E00000312F310036000000332F320071
:105ED00032000000312F320031000000322F31003B
:105EE0003300000030000000352F3200365F000024
:105EF00037000000317E0000327E0000362F310076
:105F0000312F330035000000332F3100337E000085
:105F10000DF04CFC0834AFF25402AFF22C012046D5
:105F20000DF044FC0834AFF22C02AFF264012046BD
:105F30000DF03CFC0834204607F0FCF82846FEF73C
:105F4000CFFA28460AF0D2FB70BD000070B54FF4BE
:105F5000C8600AF0DFFB05462C46FEA2FEA12046E3
:105F60000DF024FC0834FDA2FDA120460DF01EFC1E
:105F70000834F8A2F8A120460DF018FC0834F9A264
:105F8000F9A120460DF012FC0834F4A2F7A1204636
:105F90000DF00CFC0834F6A2F1A120460DF006FC31
:105FA0000834ECA2F3A120460DF000FC0834EBA26B
:105FB000E9A120460DF0FAFB0834E6A2EDA1204647
:105FC0000DF0F4FB0834E7A2E8A120460DF0EEFB4B
:105FD0000834E0A2E4A120460DF0E8FB0834DDA27D
:105FE000DFA120460DF0E2FB0834E1A2DAA1204651
:105FF0000DF0DCFB0834E0A2DBA120460DF0D6FB5F
:106000000834D8A2DDA120460DF0D0FB0834DAA276
:10601000D5A120460DF0CAFB0834D0A2D7A1204656
:106020000DF0C4FB0834CBA2D5A120460DF0BEFB79
:106030000834C8A2D3A120460DF0B8FB0834CEA284
:10604000C9A120460DF0B2FB0834C6A2C4A1204667
:106050000DF0ACFB0834BFA2C4A120460DF0A6FB96
:106060000834BEA2C0A120460DF0A0FB0834B9A29E
:10607000C4A120460DF09AFB0834B6A2BAA120466E
:106080000DF094FB0834C0A2B8A120460DF08EFBA1
:106090000834B2A2B0A120460DF088FB0834AFA2AC
:1060A000B1A120460DF082FB0834AAA2AFA1204680
:1060B0000DF07CFB0834A7A2ABA120460DF076FBC7
:1060C0000834A6A2A4A120460DF070FB0834AFA2AC
:1060D000A3A120460DF06AFB0834A0A2A2A120468D
:1060E0000DF064FB08349BA2A0A120460DF05EFBDE
:1060F000083498A29FA120460DF058FB083495A2C1
:10610000A3A120460DF052FB083492A296A120468E
:106110000DF04CFB08348FA294A120460DF046FBF5
:1061200008348CA28CA120460DF040FB083489A2D3
:106130008BA120460DF03AFB083486A28BA12046A5
:106140000DF034FB083490A287A120460DF02EFB01
:10615000083489A284A120460DF028FB083481A2CE
:1061600086A120460DF022FB08347AA27EA12046AB
:106170000DF01CFB083479A280A120460DF016FB1F
:10618000083474A27EA120460DF010FB083471A2E1
:106190007CA120460DF00AFB083477A272A12046AC
:1061A0000DF004FB08346BA275A120460DF0FEFA39
:1061B000083468A26DA120460DF0F8FA083465A2F3
:1061C00073A120460DF0F2FA083462A26DA12046B8
:1061D0000DF0ECFA08345FA263A120460DF0E6FA58
:1061E00008345CA261A120460DF0E0FA08345BA2FD
:1061F0005BA120460DF0DAFA083464A25BA12046C8
:106200000DF0D4FA083455A257A120460DF0CEFA6D
:10621000083450A255A120460DF0C8FA08344DA20A
:1062200054A120460DF0C2FA08344AA258A12046D3
:106230000DF0BCFA083447A24BA120460DF0B6FA87
:10624000083444A24BA120460DF0B0FA083441A214
:1062500041A120460DF0AAFA083440A24DA12046E3
:106260000DF0A4FA083449A23BA120460DF09EFA95
:1062700008343AA23CA120460DF098FA083443A213
:106280003FA120460DF092FA083432A236A12046F2
:106290000DF08CFA08342FA239A120460DF086FAB1
:1062A000083430A235A120460DF080FA083429A226
:1062B00039A120460DF07AFA083426A237A12046EB
:1062C0000DF074FA083423A22CA120460DF06EFACA
:1062D000083422A22AA120460DF068FA08342AA226
:1062E00026A120460DF062FA083423A22AA12046F6
:1062F0000DF05CFA08341BA228A120460DF056FAD6
:10630000083418A21DA120460DF050FA083424A22A
:106310001BA120460DF04AFA08340EA217A1204610
:106320000DF044FA083418A20FA120460DF03EFAF1
:10633000083411A218A120460DF038FA083409A239
:1063400016A120460DF032FA083406A20BA1204611
:1063500028E00000312F3200365F0000312F31007D
:1063600031000000332F3200330000003200000003
:10637000372F3200375F0000322F31003600000027
:106380003500000034000000342F3100332F31007D
:1063900030000000355F0000317E00003700000053
:1063A000352F32000DF002FA0834AFF20C02AFF2D2
:1063B000300120460DF0FAF90834AFF26802AFF26E
:1063C000440120460DF0F2F90834AFF24402AFF276
:1063D000680120460DF0EAF90834AFF28002AFF20E
:1063E000880120460DF0E2F90834AFF29002AFF2D6
:1063F000900120460DF0DAF90834AFF2A002AFF2B6
:10640000940120460DF0D2F90834AFF2A802AFF2A1
:10641000A80120460DF0CAF90834AFF2C802AFF265
:10642000C00120460DF0C2F90834AFF2D002AFF23D
:10643000C80120460DF0BAF90834AFF2B002AFF24D
:10644000D40120460DF0B2F90834AFF2F802AFF2F1
:10645000E40120460DF0AAF90834AFF20812AFF2B9
:10646000EC0120460DF0A2F90834AFF21812AFF299
:10647000E00120460DF09AF90834AFF22812AFF28D
:10648000181120460DF092F90834AFF23812AFF22D
:106490001C1120460DF08AF90834AFF24812AFF211
:1064A000481120460DF082F90834AFF25012AFF2D5
:1064B0001C1120460DF07AF90834AFF23412AFF215
:1064C000681120460DF072F90834AFF27812AFF27D
:1064D000781120460DF06AF90834AFF28012AFF25D
:1064E000801120460DF062F90834AFF29812AFF235
:1064F000841120460DF05AF90834AFF29812AFF229
:10650000981120460DF052F90834AFF2B812AFF2EC
:10651000B01120460DF04AF90834AFF2C012AFF2C4
:10652000B81120460DF042F90834AFF2A012AFF2D4
:10653000C41120460DF03AF90834AFF2E012AFF280
:10654000D81120460DF032F90834AFF2D412AFF270
:10655000D01120460DF02AF90834AFF20022AFF234
:10656000F81120460DF022F90834AFF20822AFF2FC
:10657000D41120460DF01AF90834AFF22822AFF2F8
:10658000202120460DF012F90834AFF23822AFF284
:10659000F41120460DF00AF90834AFF24822AFF2A8
:1065A000242120460DF002F90834AFF25022AFF258
:1065B000302120460DF0FAF8083408A2AFF2442149
:1065C00020460DF0F3F80834204606F0B3FD2846C7
:1065D000FDF786FF28460AF089F870BD372F310095
:1065E00070B54FF4C8600AF095F805462C46FEA237
:1065F000FEA120460DF0DAF80834FDA2FDA12046E8
:106600000DF0D4F80834FCA2FCA120460DF0CEF821
:106610000834FBA2FBA120460DF0C8F80834F4A210
:10662000F2A120460DF0C2F80834F1A2F3A12046F1
:106630000DF0BCF80834ECA2EEA120460DF0B6F83F
:106640000834EBA2F0A120460DF0B0F80834EFA218
:10665000E8A120460DF0AAF80834EDA2E3A12046F7
:106660000DF0A4F80834E6A2E6A120460DF09EF84D
:106670000834DDA2DDA120460DF098F80834DCA234
:10668000DCA120460DF092F80834DBA2DBA1204605
:106690000DF08CF80834DAA2DAA120460DF086F865
:1066A0000834D3A2D1A120460DF080F80834D0A23E
:1066B000D2A120460DF07AF80834CBA2D5A120460D
:1066C0000DF074F80834CAA2CCA120460DF06EF883
:1066D0000834CEA2CFA120460DF068F80834C2A23B
:1066E000CDA120460DF062F80834C5A2C5A1204610
:1066F0000DF05CF80834C2A2BCA120460DF056F89B
:106700000834C6A2C6A120460DF050F80834BCA239
:10671000BAA120460DF04AF80834B5A2BDA1204622
:106720000DF044F80834B2A2B4A120460DF03EF8B2
:106730000834B3A2B7A120460DF038F80834B0A24F
:10674000B0A120460DF032F80834ADA2AEA120462B
:106750000DF02CF80834A4A2AFA120460DF026F8C5
:106760000834AAA2ABA120460DF020F80834A2A25A
:10677000A2A120460DF01AF808349DA2A1A120463E
:106780000DF014F808349EA2A2A120460DF00EF8D8
:10679000083497A299A120460DF008F8083494A275
:1067A00092A120460DF002F808348FA299A120464C
:1067B0000CF0FCFF08348EA28CA120460CF0F6FFF2
:1067C00008348BA28DA120460CF0F0FF083488A27B
:1067D00086A120460CF0EAFF083483A287A1204658
:1067E0000CF0E4FF083482A28AA120460CF0DEFF00
:1067F000083483A28AA120460CF0D8FF083489A26D
:1068000085A120460CF0D2FF08347BA282A120464D
:106810000CF0CCFF08347AA27AA120460CF0C6FF17
:10682000083477A280A120460CF0C0FF08346EA285
:106830007EA120460CF0BAFF083471A27CA120464C
:106840000CF0B4FF08346AA27AA120460CF0AEFF27
:10685000083467A274A120460CF0A8FF083464A293
:1068600074A120460CF0A2FF083465A26EA1204658
:106870000CF09CFF08345EA26EA120460CF096FF3F
:1068800008345BA25FA120460CF090FF08345CA2A4
:1068900065A120460CF08AFF083455A265A1204668
:1068A0000CF084FF083450A263A120460CF07EFF58
:1068B000083453A25CA120460CF078FF08344CA2A7
:1068C0005EA120460CF072FF08344BA256A1204670
:1068D0000CF06CFF08344AA24AA120460CF066FF77
:1068E000083447A250A120460CF060FF08343EA2B5
:1068F0004EA120460CF05AFF083441A24CA120467C
:106900000CF054FF08343AA24AA120460CF04EFF86
:10691000083437A244A120460CF048FF083434A2C2
:1069200044A120460CF042FF083435A23EA1204687
:106930000CF03CFF08342EA23EA120460CF036FF9E
:1069400008342BA22FA120460CF030FF08342CA2D3
:1069500035A120460CF02AFF083425A235A1204697
:106960000CF024FF083420A233A120460CF01EFFB7
:1069700008341FA231A120460CF018FF083420A2D1
:106980002DA120460CF012FF08341BA226A12046A0
:106990000CF00CFF08341AA21AA120460CF006FFD6
:1069A000083417A220A120460CF000FF08340EA2E4
:1069B0001EA120460CF0FAFE083411A21CA12046AC
:1069C0000CF0F4FE08340AA21AA120460CF0EEFEE8
:1069D000083407A214A120460CF0E8FE083404A2F3
:1069E00014A120462CE00000322F3200365F000058
:1069F000312F3400375F0000352F340031000000A4
:106A0000312F320030000000355F0000332F34009A
:106A1000342F32003200000033000000332F3200E8
:106A200034000000382F340036000000337E0000B0
:106A3000327E0000317E000037000000350000008B
:106A40000CF0B4FE0834AFF24802AFF22401204645
:106A50000CF0ACFE0834AFF26802AFF22801204619
:106A60000CF0A4FE0834AFF27802AFF268012046C1
:106A70000CF09CFE0834AFF27802AFF254012046CD
:106A80000CF094FE0834AFF29802AFF258012046A1
:106A90000CF08CFE0834AFF2B002AFF26401204675
:106AA0000CF084FE0834AFF2A802AFF28401204655
:106AB0000CF07CFE0834AFF2C802AFF28001204631
:106AC0000CF074FE0834AFF2D002AFF2B4012046ED
:106AD0000CF06CFE0834AFF2D802AFF2D8012046B9
:106AE0000CF064FE0834AFF2E802AFF2C4012046B5
:106AF0000CF05CFE0834AFF2EC02AFF2D00120469D
:106B00000CF054FE0834AFF208122FA120460CF00E
:106B10004DFE0834AFF21812AFF2F00120460CF02F
:106B200045FE0834AFF22812AFF2FC0120460CF00B
:106B30003DFE0834AFF23812AFF2081120460CF0D7
:106B400035FE0834AFF25812AFF21C1120460CF09B
:106B50002DFE0834AFF24C12AFF2341120460CF087
:106B600025FE0834AFF28012AFF23C1120460CF043
:106B70001DFE0834AFF27812AFF2481120460CF037
:106B800015FE0834AFF27C12AFF2541120460CF01F
:106B90000DFE0834AFF29812AFF2681120460CF0E7
:106BA00005FE0834AFF28C12AFF2841120460CF0CF
:106BB000FDFD0834204606F0BDFA2846FDF790FC9E
:106BC000284609F093FD70BD357E000070B54FF486
:106BD000166009F09FFD05462C46FEA2FEA1204648
:106BE0000CF0E4FD0834FDA2FDA120460CF0DEFD12
:106BF0000834FCA2FCA120460CF0D8FD0834F7A212
:106C0000FAA120460CF0D2FD0834F4A2F6A12046E9
:106C10000CF0CCFD0834F3A2EFA120460CF0C6FD29
:106C20000834EEA2F2A120460CF0C0FD0834EBA21D
:106C3000E9A120460CF0BAFD0834EAA2EDA12046F5
:106C40000CF0B4FD0834E5A2EBA120460CF0AEFD3B
:106C50000834E2A2E6A120460CF0A8FD0834DDA22B
:106C6000DDA120460CF0A2FD0834DCA2DEA1204606
:106C70000CF09CFD0834D9A2DCA120460CF096FD56
:106C80000834D8A2DDA120460CF090FD0834DCA227
:106C9000D3A120460CF08AFD0834D9A2D9A1204600
:106CA0000CF084FD0834D8A2D4A120460CF07EFD5F
:106CB0000834D5A2D0A120460CF078FD0834C5A236
:106CC000C5A120460CF072FD0834C4A2C4A1204620
:106CD0000CF06CFD0834C3A2C3A120460CF066FD85
:106CE0000834BEA2C1A120460CF060FD0834BBA24E
:106CF000BDA120460CF05AFD0834BAA2B6A1204628
:106D00000CF054FD0834B5A2B9A120460CF04EFD9C
:106D10000834B2A2B0A120460CF048FD0834B1A25C
:106D2000B4A120460CF042FD0834ACA2B2A120462A
:106D30000CF03CFD0834A9A2B4A120460CF036FDAD
:106D40000834A6A2ABA120460CF030FD0834A3A263
:106D5000A7A120460CF02AFD0834A0A29EA120463F
:106D60000CF024FD08349DA2A0A120460CF01EFDCD
:106D700008349CA298A120460CF018FD083499A272
:106D80009BA120460CF012FD08349FA292A1204640
:106D90000CF00CFD083493A297A120460CF006FDE0
:106DA00008348EA291A120460CF000FD08348BA27D
:106DB00092A120460CF0FAFC083488A288A1204653
:106DC0000CF0F4FC083485A28CA120460CF0EEFCFB
:106DD000083482A282A120460CF0E8FC08347DA28F
:106DE00088A120460CF0E2FC08347CA27CA120465D
:106DF0000CF0DCFC083479A280A120460CF0D6FC13
:106E0000083478A279A120460CF0D0FC083473A293
:106E100071A120460CF0CAFC083470A274A120466F
:106E20000CF0C4FC08346FA272A120460CF0BEFC2A
:106E300008346AA26DA120460CF0B8FC083467A2A1
:106E40006EA120460CF0B2FC083464A264A1204676
:106E50000CF0ACFC083461A268A120460CF0A6FC42
:106E600008345EA25EA120460CF0A0FC08345BA2B0
:106E700064A120460CF09AFC083458A258A1204680
:106E80000CF094FC083455A25CA120460CF08EFC5A
:106E900008345BA255A120460CF088FC08345CA2A3
:106EA0004DA120460CF082FC083457A24CA120468C
:106EB0000CF07CFC083449A24CA120460CF076FC76
:106EC000083446A24DA120460CF070FC083443A2C1
:106ED00043A120460CF06AFC083440A247A120469A
:106EE0000CF064FC08343DA23DA120460CF05EFC91
:106EF000083438A243A120460CF058FC083437A2CD
:106F000037A120460CF052FC083434A23BA12046A5
:106F10000CF04CFC083431A234A120460CF046FCA5
:106F2000083437A235A120460CF040FC083434A2C6
:106F30002EA120460CF03AFC083428A226A12046B7
:106F40000CF034FC083425A229A120460CF02EFCBC
:106F5000083424A227A120460CF028FC08341FA2E4
:106F600025A120460CF022FC08341CA220A12046BA
:106F70000CF01CFC083419A217A120460CF016FCDA
:106F8000083416A21AA120460CF010FC083413A2F3
:106F900011A120460CF00AFC083410A210A12046D2
:106FA0000CF004FC08340DA20BA120460CF0FEFBF3
:106FB00008340AA20EA120460CF0F8FB083407A200
:106FC00005A120460CF0F2FB083404A208A12046DB
:106FD00020E00000332F320036000000312F320055
:106FE000337E0000322F320037000000317E000077
:106FF000350000003300000030000000327E000049
:10700000312F3400357E0000342F32003200000072
:10701000332F34000CF0CAFB0834AFF21402AFF285
:10702000480120460CF0C2FB0834AFF24802AFF230
:10703000380120460CF0BAFB0834AFF26002AFF220
:10704000600120460CF0B2FB0834AFF27002AFF2E0
:107050004C0120460CF0AAFB0834AFF28002A6A136
:1070600020460CF0A3FB0834AFF29002AFF26C01A3
:1070700020460CF09BFB0834AFF2A002AFF2A00157
:1070800020460CF093FB0834AFF2A802AFF2940153
:1070900020460CF08BFB0834AFF2C002AFF2B40113
:1070A00020460CF083FB0834AFF2D002AFF2D801D7
:1070B00020460CF07BFB0834AFF2D802AFF2C401DB
:1070C00020460CF073FB0834AFF2F002AFF2CC01B3
:1070D00020460CF06BFB0834AFF20812AFF200113F
:1070E00020460CF063FB0834AFF21012AFF2F80147
:1070F00020460CF05BFB0834AFF2FC02AFF220112B
:1071000020460CF053FB0834AFF20C12AFF20C1116
:1071100020460CF04BFB0834AFF2381276A1204623
:107120000CF044FB0834AFF24C12AFF228112046A9
:107130000CF03CFB0834AFF25C12AFF25C1120465D
:107140000CF034FB0834AFF26412AFF25011204659
:107150000CF02CFB0834AFF27C12AFF27C1120460D
:107160000CF024FB0834AFF28C12AFF26811204609
:107170000CF01CFB0834AFF27012AFF29C112046E9
:107180000CF014FB0834AFF2A412AFF294112046B5
:107190000CF00CFB0834AFF2BC12AFF2BC1120466D
:1071A0000CF004FB0834AFF2CC12AFF2A811204669
:1071B0000CF0FCFA0834AFF2D4124FA120460CF0C8
:1071C000F5FA0834AFF2EC12AFF2C81120460CF019
:1071D000EDFA0834AFF2FC12AFF2FC1120460CF0CD
:1071E000E5FA0834AFF20422AFF2F01120460CF0B9
:1071F000DDFA0834AFF21422AFF2102120460CF071
:10720000D5FA0834AFF22422AFF2242120460CF044
:10721000CDFA0834AFF23422AFF22C2120460CF024
:10722000C5FA0834AFF24422AFF2402120460CF0F8
:10723000BDFA0834AFF25C22AFF2642120460CF0B4
:10724000B5FA0834AFF26C22AFF25C2120460CF0A4
:10725000ADFA0834AFF27422AFF2842120460CF06C
:10726000A5FA0834AFF28C22AFF2742120460CF05C
:107270009DFA0834AFF29C22AFF2902120460CF028
:1072800095FA0834AFF2AC22AFF2A42120460CF0FC
:107290008DFA0834AFF29822AFF2B02120460CF0FC
:1072A00085FA0834AFF2A822AFF2C42120460CF0D0
:1072B0007DFA0834AFF2DC22AFF2E42120460CF074
:1072C00075FA0834AFF2EC22AFF2DC2120460CF064
:1072D0006DFA083409A2AFF2003120460CF066FACC
:1072E0000834204605F026FF2846FDF7F9F8284621
:1072F00009F0FCF970BD0000367E0000362F320028
:1073000070B54FF4C86009F005FA05462C4614A282
:1073100014A120460CF04AFA083411A212A120460A
:107320000CF044FA08340EA210A120460CF03EFAEC
:1073300008340BA20EA120460CF038FA08340DA236
:107340000DA120460CF032FA0834204605F0F2FE7A
:107350002846FDF7C5F8284609F0C8F970BD0000B9
:10736000312F3200310000003200000033000000F5
:1073700034000000312F3100350000002DE9FF47B7
:1073800004460D46164699460020039002960027B3
:107390008046009002A80BF027F98DF80C000398A6
:1073A000C0F30310022800D01FE001A9029800F0EA
:1073B0004DF88046029908440290DDE90110471813
:1073C0000298381A022800DA0FE002A80BF00CF934
:1073D0008DF80000009800F00100207002A80BF06A
:1073E00003F928704FF0010800BF404604B0BDE823
:1073F000F0872DE9F84305460C46012600270020BA
:10740000206000BF4FF0FF38781C0746042801DDDC
:1074100000BF17E001216846A8478046B8F1010F78
:1074200000D00FE09DF8001001F07F01206801FB03
:1074300006002060F6019DF8000000F080000028A2
:10744000E0D100BF3846BDE8F883000070B50446BF
:107450000D460348046029460248FFF7CAFF70BD85
:10746000F801002069A6000830B50246002300BFDD
:107470000846CD1701EB5565ED11A1EBC515ECB232
:10748000CD1701EB5565E911002901DD44F08004B9
:1074900018465B1C14540029EADC184630BD000075
:1074A000401C802801DA401C0AE0B0F5804F01DA68
:1074B000801C05E00349884201DAC01C00E0001D81
:1074C00070470000FFFF1F002DE9FE4305460E46F2
:1074D0001446029500200190009000274FF0FF38DD
:1074E000204600F0A5F807468146FFF7D9FFB042D5
:1074F00002DD6FF001088FE000208DF80400019894
:1075000020F0F000103001909DF8041002A80CF05B
:10751000D5FD39460298FFF7A7FF0299084402906B
:10752000207A042808D13EA102A80CF0B3FD042162
:1075300002A80CF0C3FD07E03BA102A80CF0AAFDD5
:10754000032102A80CF0BAFD00208DF80000A17EF6
:10755000009861F341000090E07E08B1012100E055
:107560000021009861F3820000900098C0F3800031
:1075700058B194F83D10009861F3C400009094F85D
:107580003C10009861F345100090206C08B9A06C85
:1075900020B1009820F0800080300090E06C08B9A5
:1075A000606D20B1009820F04000403000909DF8C0
:1075B000001002A80CF082FD218B02A80CF084FDC3
:1075C00002A8D4E90423E1680CF096FDE07E58B1EE
:1075D00002A8D4E90A23616A0CF08EFD02A8D4E95E
:1075E0000D23216B0CF088FD0098C0F3C01028B16A
:1075F00002A8D4E91123216C0CF07EFD0098C0F3A1
:10760000801028B102A8D4E91423E16C0CF074FDB9
:107610000298A0EB050800BF4046BDE8FE830000CD
:107620004D515454000000004D51497364700000E6
:1076300070B504460025207A032801D10C2503E00B
:10764000207A042800D10A25D4E90412E06800F069
:107650002AF8801C0544E07E68B1D4E90A12606A09
:1076600000F021F8861CD4E90D12206B00F01BF805
:107670003044801C0544206C08B9A06C30B1D4E9BA
:107680001112206C00F00FF8801C0544E06C08B962
:10769000606D30B1D4E91412E06C00F004F8801C85
:1076A0000544284670BD37B50024009820B10098E5
:1076B000FBF754FC044600E0019C20463EBD00F070
:1076C0004FF800F04DF8000070B5002100230F22A4
:1076D000C47804B3154C246804F4E064C4F5E06491
:1076E000210AC1F10403CA40447804FA03F1847802
:1076F0001440214309010E4C0678A155047804F08A
:107700001F050124AC4005786D11AD0005F1E025A1
:10771000C5F8004109E0047804F01F050124AC40DD
:10772000044D0678761145F8264070BD0CED00E05A
:1077300000E400E080E100E002490143024A1160F8
:10774000704700000000FA050CED00E0024A0A4014
:107750000243024B1A60704780FFFF1F08ED00E0F4
:107760000648006800F4E06005490843001D03492D
:107770000860BFF3408F00BFFEE700000CED00E0A3
:107780000000FA0510B50E480068C0B90D48006841
:10779000FBF7B1F90C490860084600680B4908601E
:1077A0000948006800EB4000094901EBC0000949A5
:1077B00008600846006808490860FBF760F910BDDA
:1077C0003C0100205C010020440100204001002019
:1077D000BC1F00204C0100204801002070B5044669
:1077E00010464FF080750560051F28462C606FF02D
:1077F0000106051F28462E604FF01236051F284649
:107800002E604FF00336051F28462E604FF00236DB
:10781000051F28462E607610051F28462E60051F7E
:10782000284629604FF01136051F28462E604FF07C
:107830001036051F28462E604FF00936051F2846D2
:107840002E604FF00836051F28462E604FF0073691
:10785000051F28462E604FF00636051F28462E606D
:107860004FF00536051F28462E604FF00436051FE1
:1078700028462E6070BD000010B5FBF7F9F80446ED
:1078800006480078401C05490870054800780549FD
:1078900008702046FBF7F0F810BD000058010020EA
:1078A000440100206001002070B52025FBF7E0F8BE
:1078B00004460A48007820B108480078401E07496D
:1078C00008700648007810B9202005490870204645
:1078D000FBF7D2F802F0C4F970BD00005801002097
:1078E0006001002030B5034602EB4200084C44F82A
:1078F000301002EB420004EBC00043604FF0004048
:1079000002EB4204024D05EBC404E060002030BDF0
:10791000BC1F0020024800880A30014908807047D7
:107920003601002029B1064AD2690243044BDA61CC
:1079300004E0034AD2698243014BDA6170470000D8
:107940000010024029B1064A12690243044B1A6131
:1079500004E0034A12698243014B1A617047000038
:107960000010024029B1064A92690243044B9A6111
:1079700004E0034A92698243014B9A617047000018
:107980000010024029B1064AD2680243044BDA6073
:1079900004E0034AD2688243014BDA60704700007A
:1079A0000010024030B500210022002400232D4D9C
:1079B0006D6805F00C0121B1042905D0082923D1F7
:1079C00005E0294D056022E0274D05601FE0254DAB
:1079D0006D6805F47012234D6D6805F4803402253E
:1079E00005EB92421CB9214D554305600BE01D4D3E
:1079F0006D6805F400351DB11C4D5543056002E06E
:107A0000194D5543056002E0174D056000BF00BFEA
:107A1000144D6D6805F0F0010909154D6B5C0568A2
:107A2000DD4045600F4D6D6805F4E061090A104DB9
:107A30006B5C4568DD4085600A4D6D6805F46051FA
:107A4000C90A0B4D6B5C4568DD40C560054D6D682E
:107A500005F44041890B074D6B5CC568B5FBF3F538
:107A6000056130BD0010024000127A0000093D009F
:107A7000E2010020F201002000210B4A11700A4AA5
:107A8000203A82F82010012802D0042808D103E00F
:107A90000121054A117004E00521034A117000E03C
:107AA00000BF00BF704700002010024070B50446C0
:107AB0000D460F4800780F490968884201D0002020
:107AC00070BD0DB90020FBE70BE000BF80210A4824
:107AD00002F0F4F90028F9D020780749091D088040
:107AE000641C2800A5F10101CDB2EED100BFE7E78B
:107AF00090000020440100200038014070B5054688
:107B00000E4600240B48008838B100BF03E0002077
:107B10002855601C84B2B442F9DB002404E0FDF770
:107B2000D9FA2855601C84B2024800880028F6D192
:107B3000204670BD980000202DE9F04105460E4614
:107B4000002400BF03E000202855601C84B2B4422A
:107B5000F9DB002442F2107809E0A8F101001FFAD5
:107B600080F8B8F1000F02D10020BDE8F081214873
:107B700000780028F1D020480068002838D0002480
:107B800000270CE001F012F8FF2804D101F022F8E0
:107B9000FF2800D105E0FDF79DFA781C87B2322F4F
:107BA000F0DB00BF002410E0FDF794FA2855601CBC
:107BB00084B2B44200D10CE000F0F8FFFF2804D1F9
:107BC00001F008F8FF2800D103E00C4800880028E5
:107BD000EAD100BF0948008850B900200849088050
:107BE000084908600849088001200849C1F8940143
:107BF0002046BAE79A000020200121429800002088
:107C000092000020940127429400002000002742A7
:107C100010B586B0044601210420FFF7A3FE012120
:107C20008803FFF79FFE464802F0FAF84FF4807091
:107C3000ADF8140004208DF8170003208DF816000D
:107C400005A94048FDF7E0F84FF480713D48FDF785
:107C5000B5F94FF40060ADF8140010208DF817004E
:107C600003208DF8160005A93648FDF7CDF84FF42E
:107C700000613448FDF7A0F94FF48050ADF81400CE
:107C800010208DF8170003208DF8160005A92D4847
:107C9000FDF7BAF84FF480512A48FDF78DF94FF4FB
:107CA0000070ADF8140002208DF8160018208DF831
:107CB000170005A92348FDF7A7F84FF48060ADF839
:107CC000140004208DF8170005A91E48FDF79CF844
:107CD00025208DF8000000208DF801008DF80200AD
:107CE00001208DF803006846FFF7EEFC01940020A8
:107CF000ADF80800ADF80A00ADF80C00ADF81000C2
:107D00000C20ADF80E0000210D4802F07CF80C4864
:107D100002F086F801A90A4802F02CF9012240F28B
:107D20002551074802F001F9012240F2244104489C
:107D300002F0FBF80121024802F065F806B010BD20
:107D400000380140000801401FB504464FF41650AA
:107D5000FFF75EFF01201F4908601F49C1F8AC0111
:107D6000642004F0E1F91DA103C9CDE902018DF8F9
:107D70000C401CE0062102A8FFF798FE4FF4FA70B1
:107D800004F0D2F900200090019006216846FFF728
:107D9000B5FE694613A00AF02BFD00B108E09DF87E
:107DA00004009DF80C10884200D101E000BFE1E71B
:107DB00000BF0020074908600749C1F8AC016420F2
:107DC00004F0B2F94FF4E130FFF722FF002004B0D5
:107DD00010BD0000B001214200002142C200003A63
:107DE000144000004F4B0000202801D201490870C8
:107DF00070470000900000202DE9F04780460D46B6
:107E00002621404600F0D6F8064616B90020BDE807
:107E1000F08740F2B450864200DD064628214046F5
:107E200000F0C8F80746B946C7F30A0710213A48D8
:107E3000FDF7C2F8384600F0C1FB182101EB4811EC
:107E4000C8B200F0ABFB354800F03BFD00F0FF0A84
:107E5000B819B0F5006F11DA00240CE0002000F032
:107E60009DFB2E4800F02DFD00F0FF0A85F800A0D4
:107E70006D1C601C84B2B442F0DB39E0C7F50060D1
:107E800087B200240CE0002000F088FB234800F0BB
:107E900018FD00F0FF0A85F800A06D1C601C84B27C
:107EA000BC42F0DB10211C48FDF788F810211A486D
:107EB000FDF782F8002000F081FB182101EB48114A
:107EC000C8B200F06BFB154800F0FBFC00F0FF0AA5
:107ED0000CE0002000F062FB104800F0F2FC00F023
:107EE000FF0A85F800A06D1C601C84B2B442F0DB70
:107EF00010210948FDF762F809EB06001FFA80F926
:107F00004A462821404602F0AFFA4022012140466D
:107F100002F08CFA30467AE7000801400030014058
:107F200070B5044610210D48FDF746F8204600F0D4
:107F300045FB012000F032FB094800F0C2FCC5B24D
:107F4000002000F02BFB064800F0BBFCC5B210215E
:107F50000248FDF733F8284670BD000000080140D4
:107F60000030014070B504460D4610210F48FDF762
:107F700023F8284600F022FB082101EB4411C9B286
:107F800041F0010000F00AFB094800F09AFCC6B27B
:107F9000002000F003FB064800F093FCC6B210215D
:107FA0000248FDF70BF8304670BD000000080140A4
:107FB0000030014070B505460E4610211548FCF70B
:107FC000FBFF304600F0FAFA082101EB4511C9B277
:107FD00041F0020000F0E2FA0F4800F072FC0446A3
:107FE000002000F0DBFA0C4800F06BFC0446002097
:107FF00000F0D4FA4FF6FF7000EA0424064800F0BF
:1080000060FC204484B210210248FCF7D7FF2046D0
:1080100070BD0000000801400030014008B501219A
:108020000820FFF79FFC0420ADF8000010208DF819
:10803000030002208DF8020069460448FCF7E4FEC4
:1080400004210248FCF7BAFF08BD0000000C014003
:1080500008480078401C07490870084600786428E2
:1080600006DD0020087004480068401C02490860D2
:1080700070470000340100203001002010B50120BD
:1080800002490860FF2000F0ABF910BD98012242C0
:1080900070B5054601220021092000F0EAF90446E6
:1080A00024B91021284600F055F90446FFF7E6FFF1
:1080B0000CB1012070BD0020FCE770B505464FF6FD
:1080C000FF7401E0601E84B2FF2000F089F9A8422D
:1080D00001D0002CF6D10CB9FF2070BD0020FCE7C8
:1080E0007FB56846FFF7D4FF10B1002004B070BD23
:1080F0009DF8000000F0C000402809D19DF809005B
:108100009DF8081000EB0120401C84B2A50220E07D
:108110009DF8050000F00F009DF80A1000EBD1104B
:108120009DF8091001F0030100EB4100861C9DF849
:10813000080080119DF8071000EB81009DF80610E3
:1081400001F0030100EB8120441CA6F1090004FAB0
:1081500000F52846CAE70000F8B500F021F900F064
:108160004AF9002504E0FF2000F03AF9681C85B2C6
:108170000A2DF8DB142600BF95220021084600F0E6
:1081800078F90446012C04D03000A6F101018EB22A
:10819000F2D1002051490870012C4AD187224FF4B6
:1081A000D571082000F065F9012847D1002506E0C7
:1081B000FF2000F015F90DF80500681C85B2042DAC
:1081C000F6DB9DF80200012879D19DF80300AA286A
:1081D00075D14FF6FE7600BF01220021372000F056
:1081E00048F901229107292000F043F9044624B1FF
:1081F0003000A6F101018EB2EED1002E5FD0012237
:1082000000213A2000F035F9002858D1002506E079
:10821000FF2000F0E5F80DF80500681C85B2042D7C
:10822000F6DB9DF8000000F0400018B106202B4955
:10823000087044E004202949087040E00122002130
:10824000372000F016F901220021292000F011F951
:108250000446012C17DC0220204908704FF6FE76F8
:1082600000BF01220021372000F003F90122002184
:10827000292000F0FEF80446BCB13000A6F101014F
:108280008EB2EED111E00120144908704FF6FE764F
:1082900000BF01220021104600F0EBF8044624B193
:1082A0003000A6F101018EB2F3D12EB101225102AC
:1082B000102000F0DEF810B1002008490870FFF728
:1082C000DDFE00F093F80548007808B10020F8BD05
:1082D0000CB12046FBE7AA20F9E70000E6000020E9
