:020000040800F2
:1028000018250020292B0008835E00086552000867
:102810007F5E0008DD4600087D880008000000009B
:102820000000000000000000000000002B73000802
:102830004D49000800000000BF2A00084D7900083B
:10284000432B0008432B0008432B0008432B0008B0
:10285000432B0008432B0008432B0008432B0008A0
:10286000432B0008432B00080D4B0008432B0008A6
:10287000432B0008432B0008432B0008432B000880
:10288000432B0008432B0008432B0008432B000870
:10289000432B0008432B0008432B0008432B000860
:1028A000432B0008432B0008432B0008432B000850
:1028B000432B00086D7A0008957A0008432B000826
:1028C000432B0008432B0008432B0008432B000830
:1028D000432B0008E9830008C5840008432B000847
:1028E000432B0008432B0008432B0008432B000810
:1028F000432B0008432B0008432B0008432B000800
:10290000432B0008432B0008432B0008432B0008EF
:10291000432B0008432B0008432B0008432B0008DF
:10292000432B0008432B0008432B0008432B0008CF
:1029300000F002F800F07DF80AA090E8000C824454
:102940008344AAF10107DA4501D100F072F8AFF231
:10295000090EBAE80F0013F0010F18BFFB1A43F07D
:102960000103184708120100281201000A444FF021
:10297000000C10F8013B13F0070408BF10F8014BDE
:102980001D1108BF10F8015B641E05D010F8016B23
:10299000641E01F8016BF9D113F0080F1EBF10F887
:1029A000014BAD1C0C1B09D16D1E58BF01F801CBAA
:1029B000FAD505E014F8016B01F8016B6D1EF9D52D
:1029C0009142D6D370470000002300240025002642
:1029D000103A28BF78C1FBD8520728BF30C148BF82
:1029E0000B607047662910F0B085652910F0AD8541
:1029F000642900F08181782900F0BA81732900F000
:102A00004287002070471FB59DE8030000F064FC7A
:102A100000F042FF0400002000210FF00FFD401CD9
:102A20006060002000210FF01FFDE0601FBD10B5A9
:102A300010BD01F04EF81146FFF7E5FF0AF07CFBF0
:102A400001F06CF803B4FFF7F2FF03BC06F0A3F942
:102A5000EFF30980704780F309887047EFF308802F
:102A6000704780F30888704740BA7047C0BA704713
:102A7000EFF3108072B6704780F310887047224CD5
:102A8000224D25604FF0000484F30988204C4FF05C
:102A9000010525701F4C4FF08055256062B6FEE79A
:102AA00030B41C4C4FF08055256030BC704730B4BA
:102AB000184C4FF08055256030BC704700BF72B68F
:102AC000EFF3098028B1203880E8F00F1249096837
:102AD0000860124812490A7802700F4811490A68C2
:102AE0000260106890E8F00F203080F309884EF003
:102AF000040E62B67047B0FA80F0704790FAA0F00A
:102B00004FEA10407047000020ED00E00000FFFF9A
:102B10003801002004ED00E0440100203C010020C9
:102B2000400100204801002009488047094800472B
:102B3000FEE7FEE7FEE7FEE7FEE7FEE7FEE7FEE76D
:102B4000FEE7FEE704480549034A054B70470000CD
:102B50000D7A0008312900081823002018250020CC
:102B600018230020704770B5064600F099FB0568F1
:102B700006F10B0020F00704B4429CBF002070BD9A
:102B80002B466A68BAB11068A04210D304F108015C
:102B900088423CBF5068586007D3516810194160A3
:102BA0001168091B016058601460101D70BD134648
:102BB0005268002AE7D12146284600F079FB002818
:102BC000DED170BD70B50446051F00F069FB0068DA
:102BD000002C14BF446870BD002C18BFAC423CBF31
:102BE00020466468F8D301680A18AA4218BF4560F5
:102BF00003D12A6805461144016028684119A142A1
:102C00001CBF6C6070BD6168696021680844286001
:102C100070BD10B5044600F03BFB0068005DC006C7
:102C200002D504F1200010BD204610BD0FB41CB524
:102C3000084B06AA7B4469460090059800F0F9FD10
:102C400004460020694600F007FE20461CBC5DF8E3
:102C500014FB0000210C000070B504468569006873
:102C6000C10601D5302600E02026C00707D070BD80
:102C7000D4E9012130469047206A401C20626D1E35
:102C8000F6D570BD70B5044685690078C00707D1D8
:102C900070BDD4E9012120209047206A401C2062A9
:102CA0006D1EF6D570BD70B50C460546012A05D0DF
:102CB0002878800600D5EA69002302E0012305E0B8
:102CC0005B1C934202D2E05C0028F9D1A869E618A7
:102CD000C01AA861286A184428622846FFF7BCFF7A
:102CE00004E0D5E9012114F8010B9047B442F8D370
:102CF0002846FFF7C7FF70BD2DE9F04106460024C6
:102D000010687529314616A510D0AFF30080002851
:102D100002DA404213A507E031688A0701D512A5FF
:102D200002E0490704D511A5012401E0AFF30080BA
:102D300000210A2206F1240709E0B0FBF2FCB0FBF7
:102D4000F2F302FB1C00303078541846491C00286E
:102D5000F3D123462A463046BDE8F04100F0FDBAE3
:102D6000000000002D0000002B00000020000000EB
:102D700070B504460D4621461068AFF300802188E7
:102D8000090502D50F4A7A4402E00E4A7A440E320F
:102D9000002104F1240305E000F00F060009965D10
:102DA0005E54491C0028F7D120780023000704D581
:102DB000702D02D009B1022311322046BDE87040C7
:102DC00000F0CBBA9E0B01002DE9F05F8946044666
:102DD0004FF0000ADFF824B1FB44C0F820A02046E1
:102DE000E168884700287DD0252806D0D4E9012154
:102DF0009047206A401C2062F1E700255F4620468C
:102E0000E16888472028064607DB312E05D2B8192D
:102E100010F8200C08B10543F1E7A80701D525F00B
:102E20000405C4F81CA00027C4F818A02A2E09D055
:102E3000304605F0A9FF38B304EB8708303EC8F8E8
:102E4000186019E059F8041B204604EB87029161D1
:102E5000E1688847012F064618D1E069002820DA8A
:102E600025F020051DE0D8F8180000EB800006EBE7
:102E700040003038C8F818002046E1688847064608
:102E800005F082FF0028EED1012F0AD02E2E08D1A6
:102E90002046E16888477F1C0646022F45F0200542
:102EA000C4DBA069002803DA404245F00105A061B7
:102EB000E80701D025F01005A6B1A6F141001928B8
:102EC00002D8203645F400654A4631462046256042
:102ED0004D46FFF787FD60B1012807D0ED1D25F0B5
:102EE000070000E007E000F1080978E705F10409B0
:102EF00075E730467AE7206ABDE8F09F740B010061
:102F0000401ECAB210F8011F8A4202D00029F9D12E
:102F10000020704740EA0103024630B59B0710D1FC
:102F20004FF0013400E008C208C91D1B9D4315EA9B
:102F3000C41FF8D013F0FF0102F8011B0DD01B0ACB
:102F4000F8E711F8013B002B02F8013B05D011F81E
:102F5000013B002B02F8013BF3D130BD10B5431CFF
:102F600002E010F8011B71B18107FAD14FF0013274
:102F700002C88C1A8C4314EAC211F9D0C01A0A068E
:102F800003D0C01E10BDC01A10BD0A0401D0801E9F
:102F900010BD0902FCD0401E10BD40EA010370B50F
:102FA0009B072ED14FF00136042A2AD308C810C936
:102FB0009D1B9D43121F15EAC61517D0D8B2E1B26A
:102FC000401A50EA056110D198B2A1B2401A50EAF5
:102FD00005410AD123F07F4024F07F41401A50EA96
:102FE000052102D1180EA0EB146070BDA342DBD006
:102FF00018BA21BA884201D9012070BD4FF0FF30C4
:1030000070BD0AB9002070BD10F8013B11F8014BEA
:1030100063B1A3420AD1521E08D010F8013B11F847
:10302000014B1BB1A34201D1521EEDD1181B70BD43
:10303000032A40F2308010F0030C00F0158011F8E4
:10304000013BBCF1020F624498BF11F801CB00F8BC
:10305000013B38BF11F8013BA2F1040298BF00F810
:1030600001CB38BF00F8013B11F0030300F02580CD
:10307000083AC0F0088051F8043B083A51F804CBF4
:10308000A0E80810F5E7121D5CBF51F8043B40F8BA
:10309000043BAFF30080D20724BF11F8013B11F8C5
:1030A00001CB48BF11F8012B24BF00F8013B00F809
:1030B00001CB48BF00F8012B704710B5203AC0F093
:1030C0000B80B1E81850203AA0E81850B1E8185029
:1030D000A0E81850BFF4F5AF5FEA027C24BFB1E866
:1030E0001850A0E8185044BF18C918C0BDE81040D7
:1030F0005FEA827C24BF51F8043B40F8043B08BFE0
:103100007047D20728BF31F8023B48BF11F8012BA6
:1031100028BF20F8023B48BF00F8012B70474FF052
:1031200000020429C0F0128010F0030C00F01B8094
:10313000CCF1040CBCF1020F18BF00F8012BA8BFA2
:1031400020F8022BA1EB0C0100F00DB85FEAC17C66
:1031500024BF00F8012B00F8012B48BF00F8012B19
:1031600070474FF0000200B513469446964620394A
:1031700022BFA0E80C50A0E80C50B1F12001BFF430
:10318000F7AF090728BFA0E80C5048BF0CC05DF896
:1031900004EB890028BF40F8042B08BF704748BFE4
:1031A00020F8022B11F0804F18BF00F8012B704758
:1031B00010B5044610F0030F08BF11F0030F40F0E4
:1031C00015804FF0013E121FC0F20E8051F8043BF3
:1031D000A3EB0E0C2CEA030C1CEACE1C08BF40F833
:1031E000043BF0D0A1F1040102F10402521E08DBFD
:1031F00011F8013B002B00F8013BF7D11146FFF716
:103200008EFF204610BD00004FF0013C50F8042B0B
:1032100051F8043B9A4221D1A2EB0C03934313EAE9
:10322000CC1317D150F8042B51F8043B9A4215D116
:10323000A2EB0C03934313EACC130BD150F8042BED
:1032400051F8043B9A4209D1A2EB0C03934313EAD1
:10325000CC13DBD04FF00000704700BFD01A01BA8A
:10326000B1FA81F101F0180122FA01F0CB40C1F16D
:103270002001DBB2C0B2C01A2CFA01F3D11A91437B
:1032800011EAC311E6D17047704770477047704725
:1032900010B500F001FB001D10BD00BFA1F1000042
:1032A00000487047C0220020704770477047704741
:1032B00038B504460A4600206946AFF3008000286E
:1032C00008BF38BD02460099204600F0EDFA012003
:1032D00038BD012000F0F6BBF8B5AFF3008005461D
:1032E00000200C46102000BF0646A819A0420DD9A8
:1032F000324669460020AFF30080070008BF00F0A7
:10330000E1FB0098A04218BF0546C419FFF7C8FFAB
:1033100005600746F01D20F007004619284600F01A
:103320000AF8B44208BFF8BDA21B31463868BDE8B0
:10333000F84000F0B9BA00210160C0E901107047FF
:103340001020704710B500F0ABFA006810BD10B542
:10335000044600F0A5FA046010BD2DE9F0470D46C3
:1033600099469246044600F124080168880604D56F
:10337000E06921F01001216000E00120A84201DD98
:10338000471B00E00027A1697A1902EB0900081A1F
:10339000A0612078C00602D42046FFF75DFC00261D
:1033A00008E0D4E901211AF806009047206A401C81
:1033B000761C20624E45F4DB2078C0060AD52046F4
:1033C000FFF74AFC06E0D4E9012130209047206A4B
:1033D000401C2062381EA7F10107F4DC07E0D4E9A5
:1033E000012118F805009047206A401C2062281E21
:1033F000A5F10105F3DC2046FFF744FC2078000628
:1034000002D50220BDE8F0870120FBE770472DE9D7
:10341000FF4F0C461E464FF0FF378BB0D2E900013C
:10342000DDF860800A908A46C1F30A5505B93D4629
:10343000002108464FF00000BAF1000F00F44000F0
:1034400005DA00EB80004FF4400101EA50004FEA3A
:103450009059B9F1010F00DDB9460A9850EA4A00C7
:103460000ED044F61050A5F2FF3545432F14B8F1A5
:10347000000F1ED07542291E1EDDC9F100021CE09E
:10348000B8F1010F4FF0000001D0302103E0F2430A
:1034900005E02154401CB042FBDB304600220021F5
:1034A00021540B99C1F80880C1E900200FB0BDE894
:1034B000F08FBD1B6D1CDEE74A4600DA694206A8A4
:1034C00000F092FA06AB93E8070003AB83E807002D
:1034D00050460A9900F06FFB8DE80700A0F50050F8
:1034E0001F3800900398002D09DD42F21F014A4663
:1034F000084403A90390684600F0CEFD08E0A0F55B
:1035000000504A461F3803A90390684600F0D8FDD2
:103510008DE807000004000C03D04FF0FF30410895
:1035200000E01046B8F1000F03D0002200921546CB
:103530001EE0751E05D400F0D1F9303262556D1EC3
:10354000F9D5B3460122084302D000227F1C04E0D3
:103550002078302801D100227F1E002A099786D0CA
:103560001DE0112D07DA00F0B9F9303262556D1CFB
:1035700050EA0102F5D1084302D00098C8B10EE02C
:103580000021681E05E0235C625C63542254401EE7
:10359000491C8142F7DBAB46A81B401E0990002066
:1035A00004F80B000B98099AC0F80880C0E9002BBA
:1035B0007CE711264FF0000859E72DE9F04F8846C7
:1035C0000446D21D22F0070191B0D1E90001CDE9F6
:1035D0000A0105F04FFB02460B98C00F01D02D20C9
:1035E00007E02068810701D52B2002E0202101EAB5
:1035F000C000032A099001D0072A05DB0346414693
:10360000204600F0B1F90BE12078800601D5E06991
:1036100000E00620B8F1650F814606D0B8F1660FCC
:1036200018D0B8F1670F70D131E00020B9F1110F57
:10363000009001DB112301E009F101030AAA01A9AD
:103640000CA8FFF7E4FEDDE90C70002609F1010586
:10365000834647E001204B4600904FF000470AAAFE
:1036600001A90CA8FFF7D3FEDDE90DB00C995D466A
:10367000002610B909F101000D18B9EB050003D4BB
:10368000C0F1FF3609F10105A5EB09002BE0B9F106
:10369000010F01DA4FF001090020B9F1110F00907C
:1036A000484601DD112300E003460AAA01A90CA83F
:1036B000FFF7ADFEDDE90C704D460026834620780D
:1036C00000070AD4AB4500DA5D4601A8012D04DDF0
:1036D000411911F8011C302907D04F4502DA17F1C2
:1036E000040F04DA012082460FE06D1EEEE7002F82
:1036F00002DCED1B3E4403E0781CA84200DD7D1C8B
:10370000B81B00F1010A4FF000472078000703D4EE
:10371000AA4501DB4FF0FF3A0021B7F1004F0DF150
:1037200043088DF8431024D002202B23002F01DA08
:103730007F422D230A21021EA0F1010000DC5FB1AF
:1037400097FBF1FC97FBF1F201FB1C7C17460CF197
:10375000300C08F801CDEEE7A8F1010003702188D4
:10376000090501D5452100E06521A0F1010800F817
:10377000011C09980FA9A1EB0807FF1D00B101204A
:10378000411901EBEA70A1693844081A401EA06192
:103790002078C00602D42046FFF75EFA099828B1C7
:1037A000D4E901219047206A401C20622078C0069D
:1037B00022D52046FFF750FA1EE0002E04DBB34569
:1037C00002DD01A8805D00E03020D4E901219047AE
:1037D000206A401C2062761CAAF101005FEA000A00
:1037E0000AD100F059F8C0680168405CD4E90121B1
:1037F0009047206A401C2062281EA5F10105DCDCF0
:1038000007E0D4E9012118F8010B9047206A401C19
:103810002062381EA7F10107F3DC2046FFF732FAD9
:10382000032011B043E6000001694A1C02610878D8
:10383000704700B58FB0CDE90131002105910549F0
:103840007944CDE9031011466846FFF7BDFA0FB081
:1038500000BD0000E5FFFFFF0A6802F8010B0A60E7
:10386000704710B5436913B1AFF3008001E0FFF773
:103870001AFA012010BD127800F124010A7000220A
:103880004A700122EDE711684FF0FF32E9E70000CE
:1038900000487047B822002000487047D822002016
:1038A00000487047B8220020034640688C46002834
:1038B00018BF88423CBF03464068F8D318681844D4
:1038C000884207D00CF1030020F00700001D411AC8
:1038D000521A0146081D0A60FFF774B930B5B0F1FD
:1038E0000A024FEA900E71F100034EEA817EB0EBBE
:1038F0000E0061EB91014FEA101E4EEA017E10EBC3
:103900000E0041EB11114FEA102E4EEA016E10EB42
:103910000E0041EB11214FEA104E4EEA014E10EB22
:103920000E0041EB1141401841F100014FEAD00077
:1039300040EA41704FEAD10110EB80054FEA810463
:1039400044EA907444EB01046D1944EB0404521BE7
:10395000A3414FF0000348BF0A3200D530BD401CE0
:1039600041F1000130BD00002DE9F0411F46044641
:1039700003260168072A01F4006004DB08B116A5DC
:1039800005E016A503E008B115A500E015A521F096
:1039900010002060A069C01EA0610FB1401EA06190
:1039A0002046FFF759F94FB1D4E901213846904735
:1039B000206A401C2062C01C206206E0206AFAE7F0
:1039C000D4E9012115F8010B9047761EF8D2204664
:1039D000FFF758F9BDE8F0814E414E006E616E0070
:1039E000494E4600696E66002DE9F047814616464D
:1039F0008AB0334878440DC88DE80D0030487844CB
:103A0000801C03AC0DC884E80D0041F69B300844CF
:103A1000372190FBF1F290FBF1F5A5F1800501FB58
:103A200012041B3C02D56442012000E00020DFF8B4
:103A300090A080460027FA44AAF1BE0A0DE0E007F4
:103A400009D03246684607EB47010AEB810100F0D6
:103A500037FB8DE8070064107F1C002CEFD1184F56
:103A60007F44AC3F18E0E80714D007EB04100DF1D9
:103A7000180A90E80E008AE80E00C068F04201D1F2
:103A800098190890324606A903A800F019FB03AB69
:103A900083E807006D10641C002DE4D132466946AE
:103AA000B8F1000F03A802D000F0F6FA01E000F030
:103AB00007FBC9E90001C9F808200AB0BDE8F08792
:103AC0007C00010010B500F035F8BDE8104000F0B2
:103AD0002BB87546FFF7DCFEAE4605006946534637
:103AE00020F00700854618B020B5FFF72BF8BDE899
:103AF00020404FF000064FF000074FF000084FF055
:103B0000000B21F00701AC46ACE8C009ACE8C009E5
:103B1000ACE8C009ACE8C0098D4670470446AFF375
:103B200000802046FEF78EFF002801D005F033B953
:103B30007047000010B5012805D0002103A000F057
:103B400021F8012010BD09A1F8E7000053494752B0
:103B5000544D454D3A204F7574206F66206865615D
:103B600070206D656D6F7279000000003A20486525
:103B70006170206D656D6F727920636F7272757000
:103B80007465640070B505460C460A2000E06D1CA3
:103B900005F005F935B128780028F8D102E0641C59
:103BA00005F0FDF814B120780028F8D1BDE8704088
:103BB0000A2005F0F4B85FEA400C08BF91F0000F4E
:103BC0004FEA8C234FEAC12243EA51514FEA1C507D
:103BD00018BF00F5F0404FEA300018BF41F0004137
:103BE0005FEA6C5C00F02980BCF1FF3F08BF40F049
:103BF00080407047130C06BF12044FF0100C4FF0BA
:103C0000000C130E04BF12020CF1080C130F04BFBA
:103C100012010CF1040C930F04BF92000CF1020C82
:103C2000D30F04BF52000CF1010C11464FF00002FB
:103C3000A0F11F00A0EB0C00704711F0004F08BF6F
:103C4000704731F000413FF4D5AF0B0C06BF0904BB
:103C50004FF0100C4FF0000C0B0E04BF09020CF1DA
:103C6000080C0B0F04BF09010CF1040C8B0F04BFEF
:103C700089000CF1020CCB0F04BF49000CF1010CC0
:103C8000CCF12003A0EB0C0022FA03F302FA0CF2B1
:103C900041EA030100F10100704720F07F4C80EA07
:103CA000030023F07F47ACEB070303F57C5300F0E0
:103CB000004003F1FF032DE980494FEA154B09B499
:103CC0004FEA144325EA0B4E24EA03480FF2042678
:103CD00006EB132749083E785FEA320203FB0667CA
:103CE000C7F5000707FB06F64FEA54374FEAD646FA
:103CF00006F1020607FB066CCCF1005C4FEA1C479C
:103D00002CEA074C07FB06F40CFB06F504EB154602
:103D10004FEA961634BF00204FF000404FEAD137EB
:103D200006FB07FC4FEA1C4C0CFB0BF7D21B03FBFA
:103D30000CF761EB07010CFB0EF7B0EB074072EBE1
:103D400017420CFB08F734BFA2EB0742B2EB074265
:103D500061EB17414FEA0C444FEA910706FB07FC61
:103D60004FEA1C4C0CFB0BF7B0EBC74072EB573221
:103D700003FB0CF734BFA2EBC742B2EBC74261EBC7
:103D800057310CFB0EF7B0EBC70072EB57720CFB10
:103D900008F734BFA2EBC702B2EBC70261EB577161
:103DA000039F4FEA816141EA921104EBCC044FEA90
:103DB000D1374FEA826206FB07FC42EA90124FEAD3
:103DC00080604FEA1C4C0CFB0BF7D21B03FB0CF77B
:103DD00061EB07010CFB0EF7B0EB074072EB1742EB
:103DE0000CFB08F734BFA2EB0742B2EB074261EBD2
:103DF00017414FEA8C554FEA910704EB9C2406FBD0
:103E000007FC4FEA1C4C0CFB0BF7B0EBC74072EB06
:103E1000573203FB0CF734BFA2EBC742B2EBC742E9
:103E200061EB57310CFB0EF7B0EBC70072EB57722A
:103E30000CFB08F734BFA2EBC702B2EBC70261EB81
:103E4000577115EB4C254FEA816141EA92114FEA17
:103E500082624FEAD13742EA901206FB07FC44F136
:103E600000044FEA80604FEA1C4C0CFB0BF7D21B9E
:103E700003FB0CF761EB07010CFB0EF7B0EB0740FF
:103E800072EB17420CFB08F734BFA2EB0742B2EB10
:103E9000074261EB174115EB1C154FEA813141EAEE
:103EA00092414FEA823242EA90424FEA80304FEA32
:103EB0000C7644F1000448EA03434EEA0B484FF005
:103EC000000EB2EB080C71EB030724BF62463946C3
:103ED0004EEB0E0E4FF0000B0018524149414BEBD8
:103EE0000B0BB2EB080C71EB03077BF1000B24BF4B
:103EF000624639464EEB0E0E4FF0000B0018524151
:103F000049414BEB0B0BB2EB080C71EB03077BF158
:103F1000000B24BF624639464EEB0E0E51EA0207F3
:103F200018BF46F0010616EB0E7655F1000254F16B
:103F3000000103D5BDE88901BDE80088BDE889011D
:103F4000BDE80048B619524141EB0101A3F101035C
:103F5000704780807F7E7D7C7B7A797877767675F6
:103F60007473727171706F6E6E6D6C6C6B6A6A696E
:103F70006868676666656464636362616160605F08
:103F80005F5E5E5D5D5C5C5B5B5A5A595958585781
:103F900057565655555554545353525252515150E9
:103FA00050504F4F4F4E4E4D4D4D4C4C4C4B4B4B3C
:103FB0004A4A4A4949494848484747474746464682
:103FC00045454544444444434343434242424241BD
:103FD0004141002B26D4770021D01CB54FEA37078A
:103FE00003B44FF010004FF010014FF000000FBC71
:103FF000BDE810400BF1010BBBF1010F08BF5FEAF8
:10400000170722BF12F1010211F101014FF0004127
:1040100043F1000300F0004043EA00007047F9D389
:104020005708DAE746EA064613F1400F4FEA16460C
:104030001FDD13F1200FDFBF16430A460021203396
:104040005B42C8D0C3F1200746EA064602FA07F7EA
:104050004FEA164646EA0706C3F1200722FA03F2A2
:1040600001FA07F721FA03F14FF0000342EA0702D1
:10407000B1E746EA020646EA06464FEA164646EA2F
:104080000106BCBF46EA0646360C4FF000034FF06F
:1040900000024FF000019EE72DE9C048934630B47E
:1040A00091E8380007C831EA400C48BF34EA430CB5
:1040B00003D5FFF7F2FDFFF78CFFF0BCBDE80088E9
:1040C0002DE9C048934630B491E8380007C810F095
:1040D000804F08BF13F0804F03D100F005F8FFF7C1
:1040E00078FFF0BCBDE8008820F07F4780EA03003D
:1040F00023F07F4C07EB0C03A3F57C5300F000404A
:10410000A3F1FE0392F0000F00F0B38095F0000FD2
:1041100000F077802DE901494FEA11404FEA14463B
:1041200021EA004800FB06FC24EA064708FB06F6E5
:1041300007FB08F800FB07F718EB06484CEB164C9A
:104140004FEA124B18EB07484FEA15464CEB174065
:1041500022EA0B4E0BFB06FC25EA06470EFB06F691
:1041600007FB0EFE0BFB07F71EEB064E4CEB164C47
:104170004FF000061EEB074E4CEB174B18EB0B08ED
:1041800040F1000018EB0E0B58EB000840F1000066
:104190008F1A4FF000013CBFC943661B14BFB5EB3B
:1041A000040C00213CBFC943F61B4FEA17444EEAFA
:1041B0008E0E27EA04454FEA1C4704FB07622CEAEF
:1041C000074C05FB07F70CFB05F604FB0CFC16EB94
:1041D000074642EB174216EB0C4642EB1C421BEB28
:1041E000060658EB0202414146EA9E0601D5BDE8AB
:1041F0000189B619524141EB0101A3F10103BDE868
:1042000001894FEA14454FEA114724EA054621EA9D
:10421000074C05FB07F406FB07F70CFB06F105FB53
:104220000CFC11EB074144EB17444FEA124711EB2A
:104230000C4144EB1C4422EA074C05FB07F206FB49
:1042400007F70CFB06F605FB0CFC16EB074642EBEA
:10425000174216EB0C4642EB1C456A1854F100015C
:1042600048BF7047B619524141EB0101A3F1010368
:10427000704795F0000F37D04FEA11424FEA1447CC
:1042800021EA024624EA074C02FB07F106FB07F786
:104290000CFB06F402FB0CFC14EB074441EB17414A
:1042A0004FEA154714EB0C4441EB1C4125EA074C3F
:1042B00002FB07F506FB07F70CFB06F602FB0CFCFE
:1042C00016EB074645EB174516EB0C4645EB1C4233
:1042D000121951F1000148BF7047B619524141EB24
:1042E0000101A3F1010370474FEA14454FEA11475A
:1042F00024EA054621EA074C05FB07F106FB07F710
:104300000CFB06F24FF0000605FB0CFC12EB07421B
:1043100041EB174112EB0C4251EB1C4148BF704777
:10432000921841EB0101A3F10103704710B5094850
:10433000408C012803D100200649488402E0012076
:1043400004494884034890F82210062008F0BEF87B
:1043500010BD0000301B00201CB50EA103C9CDE923
:1043600000010E48808A01280AD100208DF807003C
:104370000821684601F070F900200849888208E0A9
:104380000120064988828DF807000821684601F05F
:1043900063F91CBD5AA5058210090000301B0020DE
:1043A00008B50121102001F0B5FE4FF40050ADF822
:1043B000000010208DF8030002208DF802006946ED
:1043C000054800F023FD002001F02EFF4FF40051BE
:1043D000014800F0F3FD08BD001001400EB50020BB
:1043E00000900190029003208DF8000002208DF8CB
:1043F000010000208DF802008DF8030002208DF8E6
:1044000004008DF80500694605200DF01BF90EBD6E
:104410000EB5002000900190029002208DF800005F
:104420008DF8010000208DF802008DF803000220B5
:104430008DF804008DF80500694605200DF002F99D
:104440000EBD0EB5002000900190029004208DF862
:10445000000002208DF8010000208DF802008DF888
:10446000030002208DF804008DF805006946052040
:104470000DF0E8F80EBD0EB50020009001900290FE
:1044800005208DF8000002208DF8010000208DF835
:1044900002008DF8030002208DF8040001208DF841
:1044A0000500694605200DF0CDF80EBD0EB50020C3
:1044B00000900190029002208DF800008DF801001C
:1044C00000208DF802008DF8030002208DF8040012
:1044D00001208DF80500694605200DF0B3F80EBDEA
:1044E0007FB505460024394B0FCB8DE80F003848C7
:1044F0000078012800D17FBD0120354908704FF4B4
:1045000016700AF01FFB334908600846006800B9BE
:10451000F1E74AE0287830383DF8100061002D4A74
:10452000126822F8110068785F280DD16100294ACD
:10453000126832F8110000EBD07149106200254B6F
:104540001B6823F8121010E068787E280DD16000F7
:104550002049096831F810004FF6FF7101EA400068
:1045600061001C4A126822F81100A879303808212D
:1045700091FBF0F0012101EB4401164A126822F888
:104580001100012000EB44001249096831F81000C5
:10459000297930394843012101EB44010D4A126861
:1045A00022F811000835601C84B228780028B1D1A7
:1045B000012101EB4401074A126822F81100012190
:1045C000054803F008FB00BF95E7000040360108EE
:1045D000B4000020B80000200004004010B53748A7
:1045E000008840003649096831F81000354991FBD0
:1045F000F0F435480068401C3349086033480068CF
:10460000401C3249086064B1601F2F490968884224
:1046100003D201202E49086006E000202C490860E2
:1046200002E000202A49086024480088400024490C
:10463000096831F81000234991FBF0F0224909681C
:10464000884202D80020204908601C4800880121C7
:1046500001EB40001A49096831F8100040F271215D
:1046600048431A490968B1EB001F25D31348008855
:10467000401C124908800020144908600F48008837
:10468000012101EB40000E49096831F8100098B98A
:1046900000200A4908800D4908600B490860084855
:1046A00000680AF03BFA00200949086009490870CF
:1046B0000021094803F08FFA10BD0000BC00002063
:1046C000B8000020A0860100C4000020C000002027
:1046D000B4012242B40000200004004001F020FC9C
:1046E00002460021012109E04B00084830F8130080
:1046F000904201D101207047481C81B24B00034811
:1047000030F813000028EFD100BFF4E7581B002059
:10471000002000BF04E00021034A1154411C88B26C
:104720003A28F8DB70470000E11A00207FB5054603
:104730000C46002600200190029003900090FF207C
:104740008DF804008DF8050028128DF80600E8B2F7
:104750008DF8070001208DF8080000208DF8090071
:1047600002208DF80A0000208DF80B0010208DF833
:104770000C006A46092101A800F0DEFC9DF800004B
:104780008DF80D009DF801008DF80E000B2101A899
:1047900001F064FD00BF30E0C82005F045FF19219D
:1047A000204601F0A1FD30B3A079C11D6A46204624
:1047B00000F0C2FC9DF80010A079C01D205C814271
:1047C00019D19DF80110A0790830205C814212D1E6
:1047D000E078A17840EA0120A8420CD120799DF828
:1047E000081041F08001884205D1207AE17940EA41
:1047F000012004B070BD701CC6B2052ECCDB0A20AF
:10480000F7E72DE9F0418EB004460D4616461F46E7
:104810004FF0000800200290039004900590019052
:10482000FF208DF808008DF8090020128DF80A008D
:10483000E0B28DF80B0003208DF80C0000208DF8FD
:104840000D0003208DF80E008DF80F508DF81060CC
:104850008DF8117001AA0A2102A800F06DFC9DF8E4
:1048600004008DF812009DF805008DF813000C214E
:1048700002A801F0F3FC00BF3DE0C82005F0D4FE23
:10488000182106A801F030FD80B39DF81E00C11D5F
:1048900001AA06A800F050FC9DF804109DF81E0027
:1048A000C01D06AA105C814221D19DF805109DF81B
:1048B0001E000830105C814219D19DF81B009DF844
:1048C0001A1040EA0120A04211D19DF81C009DF869
:1048D0000C1041F08001884209D19DF820009DF81C
:1048E0001F1040EA01200EB0BDE8F081FFE708F19B
:1048F00001001FFA80F8B8F1050FBEDB0A20F2E7CD
:104900002DE9F04706460F4690461C464FF0004002
:1049100020FA04F50C480068284010B10120BDE8D9
:10492000F087094800682843074908600023424689
:104930003946304601F032FB814622464946304630
:1049400001F0B0FB0020EAE75801002001F0E8FA8E
:1049500010B50446A0B205F067FE10BDFEB50446D2
:104960000E461546002000900190029002208DF81E
:104970000000022C52D1A6B3012D17D101208DF8D1
:1049800001008DF80200694604200CF05BFE6946C8
:1049900002200CF057FE00208DF8010002208DF857
:1049A0000200694604200CF04DFEADE0022DFCD162
:1049B00001208DF8010002208DF8020069460420D4
:1049C0000CF040FE694602200CF03CFE00208DF801
:1049D000010001208DF80200694604200CF032FE2F
:1049E00092E0FFE700208DF8010001208DF8020021
:1049F000694604200CF026FE694602200CF022FED7
:104A000000208DF8010002208DF8020069460CF0AC
:104A100019FE694604200CF015FE75E0032C01D048
:104A2000052C51D19EB3012D17D101208DF8010025
:104A300003208DF80200694604200CF003FE69464D
:104A400002200CF0FFFD00208DF8010004208DF8FD
:104A5000020069460CF0F6FD56E0022D54D101200B
:104A60008DF8010004208DF8020069460CF0EAFD83
:104A7000694602200CF0E6FD00208DF801000320BD
:104A80008DF80200694604200CF0DCFD3CE0FFE7F5
:104A900000208DF8010004208DF8020069460CF01A
:104AA000D1FD694602200CF0CDFD00208DF80100FB
:104AB00003208DF80200694604200CF0C3FD69460E
:104AC00002200CF0BFFD1FE0042C1DD176B10120A7
:104AD0008DF8010006208DF80200694604200CF0D4
:104AE000B1FD694602200CF0ADFD0DE000208DF80F
:104AF000010006208DF80200694604200CF0A2FD9A
:104B0000694602200CF09EFDFEBD000070B5002439
:104B10000025102000F072F8002860D0102000F06E
:104B200067F800BF152001F0D3FD044604F0F00142
:104B3000152003F0E7FF2A480470172001F0C8FD94
:104B4000044604F0010070B10221002001F0E2FDF2
:104B500005462A460221002004F004F82148007886
:104B600028432049087004F0020002280ED10221D7
:104B7000012001F0CFFD05462A460221012003F065
:104B8000F1FF1948007828431749087004F0040021
:104B900004280ED10221084601F0BCFD05462A4634
:104BA0000221084603F0DEFF1048007828430F4931
:104BB0000870172001F08CFD0028B3D10948007857
:104BC00010B90948007818B10121072003F050F905
:104BD0000648007818B101210A2003F049F970BD98
:104BE000BF010020C0010020C1010020C20100203F
:104BF000014908607047000014040140014600208C
:104C00000022074B1B6803EA0102054B14331B68A3
:104C10000B4013B10AB1012000E0002070470000F2
:104C200000040140002123498279002A3AD00A4633
:104C3000126803689A430B461A600A1D12680368DB
:104C40009A430B1D1A60027911440A6803681A43DB
:104C50000A60184A0832126803689A43154B0833F1
:104C60001A601A1D126803689A43124B0C331A60BB
:104C70004279102A0ED11A1F126803681A430D4B8D
:104C800008331A601A1D126803681A43094B0C3363
:104C90001A600DE00749427911440A6803681A4313
:104CA0000A6005E0027911440A6803689A430A60C1
:104CB000704700000004014030B5044604254FF45D
:104CC000302000F06FF80546042D17D10C4800691C
:104CD00040F002000A49086108464461006940F05A
:104CE000400008614FF4302000F05CF805460448AD
:104CF000006941F6FD71084001490861284630BD50
:104D00000020024004200B49C96801F0010109B1EB
:104D100001200EE00749C96801F0040109B1022031
:104D200007E00449C96801F0100109B1032000E05F
:104D300004207047002002400348006940F08000D2
:104D400001490861704700000020024070B5044628
:104D50000D460426F00200F025F80646042E11D177
:104D60000948006940F00100074908612580F00208
:104D700000F018F806460448006941F6FE71084044
:104D800001490861304670BD0020024002480349D5
:104D9000486003484860704723016745002002408F
:104DA000AB89EFCD00B502460423FFF7ABFF034606
:104DB00003E0FFF7A7FF0346521E012B01D1002A93
:104DC000F7D102B90523184600BD000030B5002216
:104DD0008B071C0F0F2303FA04F20B4B8C1053F8B4
:104DE00024309343084C8D1044F8253023468C1012
:104DF00053F824308C07240F00FA04F42343024CA8
:104E00008D1044F8253030BD080001402DE9F041F7
:104E1000024600250026002000230024002791F8E8
:104E200003C00CF00F0591F803C00CF0100CBCF19E
:104E3000000F03D091F802C04CEA050591F800C0BC
:104E4000BCF1000F31D0146800202BE04FF0010CB2
:104E50000CFA00F3B1F800C00CEA03069E4220D120
:104E600083004FF00F0C0CFA03F7BC4305FA03FC68
:104E70004CEA040491F803C0BCF1280F06D14FF0AE
:104E8000010C0CFA00FCC2F814C00AE091F803C04F
:104E9000BCF1480F05D14FF0010C0CFA00FCC2F830
:104EA00010C0401C0828D1D31460B1F800C0BCF178
:104EB000FF0F34DD546800202EE000F1080C4FF0A5
:104EC000010808FA0CF3B1F800C00CEA03069E4290
:104ED00021D183004FF00F0C0CFA03F7BC4305FA05
:104EE00003FC4CEA040491F803C0BCF1280F05D17F
:104EF00000F1080C08FA0CF8C2F8148091F803C00D
:104F0000BCF1480F07D100F1080C4FF0010808FA76
:104F10000CF8C2F81080401C0828CED35460BDE8BD
:104F2000F0810000F0B50A4600230024002100258E
:104F300000F00046B6F1004F02D11D4EF16901E0CC
:104F40001B4E7168C0F3034583B200F44016B6F5FA
:104F5000401F08D121F07061154E766826F070660A
:104F6000134F7E6012E000F48016B6F5801F06D164
:104F7000032606FA05F4A14341F0706106E0460DF0
:104F8000360103FA06F6B14341F0706122B1460DD5
:104F9000360103FA06F6314300F00046B6F1004F41
:104FA00002D1034EF16101E0014E7160F0BD0000DD
:104FB000000001400146886880B270474161704737
:104FC0000161704700487047961A002000487047FA
:104FD000581B00200246002100BF0DE0012000EB1D
:104FE00041000A4B13F81000904203D1480033F8F7
:104FF00010007047481C81B2012000EB4100034BB8
:1050000033F810000028E9D100BFF2E76800002063
:1050100002460021012110E04B000C4830F813003B
:10502000904208D1012000EB4103084830F81300FA
:1050300000F47F407047481C81B24B00034830F8B1
:1050400013000028E8D1FF20F4E70000581B0020DF
:105050000246002100BF0EE04B000B4830F8130061
:10506000904206D1012000EB4103074810F81300DD
:105070007047481C81B24B00034830F813000028E9
:10508000EAD1FF20F4E70000581B002030B50246AB
:105090000B4600210024012112E0012000EB410514
:1050A0000C4810F81500904208D19C4204D14D00E4
:1050B000084830F8150030BD601C84B2481C81B22D
:1050C000012000EB4105034830F815000028E4D129
:1050D00000BFF0E7581B002013490988322904DA81
:1050E0001249114A1288885C05E000210E4A11809D
:1050F0000E491288885C00210D4A11600B4A0A4B48
:105100001B88D1540B49098821B10A490988491ED5
:10511000084A11800121064A116003490988491C87
:10512000014A11807047000092000020AF1A002051
:105130009401274298000020F0B50B46FF24FF257C
:1051400009E010F8016B86EA0401074E765C86EAF6
:105150000504064E755C1E00A3F10107BBB2F0D139
:1051600014705570F0BD000050360108503701082A
:1051700010B501464A1E034B985C00234A1E014CA1
:10518000A35410BD180000200148008D7047000096
:10519000301B0020014890F88E017047301B002022
:1051A00000487047C01C002010B50446002300BF13
:1051B00004E00548C05CE054581C83B23A2BF8DB8D
:1051C000FFF7A6FA184610BDE11A002010B52448D2
:1051D000C08B01280ED10121084607F077F9642021
:1051E00005F03EFA0021022007F070F9642005F076
:1051F00037FA20E01A48C08B02280ED10021012086
:1052000007F064F9642005F02BFA0121022007F071
:105210005DF9642005F024FA0DE00021012007F07B
:1052200055F9642005F01CFA0021022007F04EF920
:10523000642005F015FA0A48408C012807D10121A5
:10524000062007F043F9642005F00AFA06E0002181
:10525000062007F03BF9642005F002FA10BD0000BB
:10526000301B002000F05CFE10B50F480078642869
:1052700005DA0D480078401C0B49087013E0002047
:1052800009490870094800883C2805DA0748008861
:10529000401C0649088006E00020044908800221DD
:1052A0000A2002F0E5FD10BDD1010020D20100204E
:1052B0001CB5044609A103C9CDE90001E07960B934
:1052C000207A052809D1607A0D2806D1A07AC02855
:1052D00003D10621684600F0BFF91CBD5AA5038022
:1052E0004F02000010B5FF247C48FFF763FE00F07A
:1052F0000F04ACB97A48007810BB032079490870D4
:1053000079480078401C7849087008460078502891
:1053100016DB0220734908700120714908700FE004
:1053200071480078012806DD6F480078502802DABD
:1053300001206C49087000206B49087068490870AA
:10534000012C15D16648407810BB03206549487090
:1053500065484078401C64494870084640785028A9
:1053600016DB02205F49487001205D4948700FE05C
:105370005D484078012806DD5B484078502802DA15
:1053800001205849487000205749487054494870D6
:10539000022C15D15248807810BB032051498870E7
:1053A00051488078401C50498870084680785028C1
:1053B00016DB02204B4988700120494988700FE0B4
:1053C00049488078012806DD47488078502802DA6D
:1053D0000120444988700020434988704049887002
:1053E000032C15D13E48C07810BB03203D49C8703E
:1053F0003D48C078401C3C49C8700846C0785028D9
:1054000016DB02203749C87001203549C8700FE00B
:105410003548C078012806DD3348C078502802DAC4
:1054200001203049C87000202F49C8702C49C8702D
:10543000042C15D12A48007910BB03202949087192
:1054400029480079401C28490871084600795028ED
:1054500016DB0220234908710120214908710FE061
:1054600021480079012806DD1F480079502802DA1A
:1054700001201C49087100201B4908711849087156
:10548000052C15D11648407910BB032015494871E9
:1054900015484079401C1449487108464079502805
:1054A00016DB02200F49487101200D4948710FE0B9
:1054B0000D484079012806DD0B484079502802DA72
:1054C0000120084948710020074948710449487182
:1054D0000121084602F0CCFC10BD00000010014084
:1054E00024000020180000201E00002008B5012123
:1054F000102000F00FFE0121102000F00BFE0F2005
:10550000ADF8000048208DF8030003208DF802005C
:1055100069460448FFF77AFC0121084600F0FAFDCD
:1055200008BD00000010014010B586B004460121FE
:10553000042000F0EFFD0121082000F0EBFD012127
:10554000480400F0C7FD4FF48050ADF8140010205F
:105550008DF8170003208DF8160005A92A48FFF7DB
:1055600055FC0420ADF8140018208DF8170005A98B
:105570002648FFF74BFC0820ADF8140004208DF8F6
:10558000170005A92148FFF741FC0121480400F05C
:10559000B1FD00214FF4003000F0ACFD019400207B
:1055A000ADF80800ADF80A00ADF80C00ADF8100039
:1055B0000C20ADF80E0001A9154803F077F826205D
:1055C0008DF8000000208DF8010002208DF8020007
:1055D00001208DF80300684600F056FC012240F2DD
:1055E00025510B4803F03DF8012240F224410848C0
:1055F00003F037F80121064802F0A1FF0020054919
:10560000086006B010BD0000000C01400008014019
:1056100000440040B081214230B503460C4C227852
:10562000002000240C800A4C2478A2420FD172B1D1
:1056300000BF04E0074C245C1C54441CE0B29042C0
:10564000F8DB034C24780C800024014D2C7030BD15
:105650002B000020781A002070B505460E46012068
:105660000F49086000240CE000BF40210D4802F003
:10567000C1FF0028F9D0295D0A4803F088F8601CB2
:10568000C4B2B442F0DB00BF4021064802F0B2FFD2
:105690000028F9D00020044908700149086070BD55
:1056A000B0812142004400402B000020202801D27C
:1056B00001490870704700002A00002000B587B03B
:1056C0000020049005900690019002900390032022
:1056D0008DF8100001208DF811003F208DF8120088
:1056E00000208DF8130001208DF8140000208DF8A3
:1056F000150001208DF8040005208DF805003F20DD
:105700008DF8060001A901200BF09CFF02208DF806
:10571000040000208DF8050005208DF8060001A981
:1057200004200BF08FFF04A902200BF08BFF07B0C1
:1057300000BD00B587B00020049005900690019050
:105740000290039003208DF8100001208DF81100C5
:1057500000208DF812008DF8130001208DF8140040
:1057600000208DF8150001208DF8040005208DF82B
:10577000050000208DF8060001A901200BF062FF52
:1057800002208DF8040001208DF8050005208DF819
:10579000060001A904200BF055FF04A902200BF01C
:1057A00051FF07B000BD00000148408C7047000069
:1057B000301B00200146052903DA034830F81100A8
:1057C00070470020FCE70000301B0020014948849E
:1057D00070470000301B00200246052A02DA02480A
:1057E00020F8121000207047301B002008B501215E
:1057F000082000F08FFC0320ADF8000018208DF881
:10580000030003208DF8020069463A48FFF7FEFACC
:105810000020394908603949C1F8A0010121082058
:1058200000F078FC0820ADF8000010208DF803008F
:1058300003208DF8020069462E48FFF7E7FA0121A0
:10584000202000F067FC0420ADF8000010208DF847
:10585000030003208DF8020069462948FFF7D6FAB5
:105860000121102000F056FC4FF48060ADF80000DC
:1058700010208DF8030003208DF8020069462148AE
:10588000FFF7C4FA0121042000F044FC4FF400406B
:10589000ADF8000010208DF8030003208DF8020001
:1058A00069461948FFF7B2FA0121082000F032FCDE
:1058B0000120ADF8000010208DF8030003208DF8C2
:1058C00002000121042000F025FC0220ADF80000B8
:1058D00010208DF8030003208DF8020069460A4865
:1058E000FFF794FA00200949086007F011FA06F062
:1058F000B9FD08BD000C01409C012242000022427B
:105900000014014000100140000801408C81214238
:1059100010B50024C8221849184801F0CDFB00BF7B
:105920001FE0154830F814004FF6FF71884203D18C
:105930000021114820F8141004F0010078B10E483D
:1059400010F8141020F8141010F8140038B10A4898
:1059500030F8140040F40061074820F81410601C6F
:1059600084B2C82CDDDB04482838408D40F48071B7
:1059700001482838418510BD581B002028FC030829
:105980001CB500240020009001901848808BADF8D1
:1059900000001648C08BADF802001448008CADF82A
:1059A00004001248408CADF8060014220F4910483C
:1059B00001F082FB00BF0CE00C4830F814004FF6F9
:1059C000FF71884203D10020084921F81400601CAF
:1059D00084B2142CF0DBBDF8000004498883BDF8C4
:1059E0000200C883BDF8040008841CBD301B0020E1
:1059F00000FC03081CB500200090019006220F490E
:105A00000F4809F0B5F80D49891D0622684609F0CE
:105A1000AFF8002008E00A49095C1DF80020114495
:105A2000074A1154411CC8B20628F4DB0448007828
:105A300000F0FE00024908701CBD0000E8F7FF1FDF
:105A4000A100002070B54FF4C86009F07BF805464E
:105A50002C4614A214A120460BF0E2FF083411A238
:105A600012A120460BF0DCFF08340EA210A1204644
:105A70000BF0D6FF08340BA20EA120460BF0D0FF8E
:105A800008340DA20DA120460BF0CAFF08342046B1
:105A900005F07EFD2846FEF723FD284609F03EF876
:105AA00070BD0000312F32003500000034000000CE
:105AB0003300000032000000312F310031000000BF
:105AC00070B54FF4C86009F03DF805462C4614A2A5
:105AD00014A120460BF0A4FF083411A212A1204605
:105AE0000BF09EFF08340EA210A120460BF098FF89
:105AF00008340BA20EA120460BF092FF08340DA231
:105B00000DA120460BF08CFF0834204605F040FD27
:105B10002846FEF7E5FC284609F000F870BD0000B5
:105B2000312F32003100000032000000330000004D
:105B300034000000312F3100350000002DE9FF470F
:105B400004460D461646994600200390029600270B
:105B50008046009002A80AF07BFE8DF80C000398A6
:105B6000C0F30310022800D01FE001A9029800F042
:105B70004DF88046029908440290DDE9011047186B
:105B80000298381A022800DA0FE002A80AF060FE34
:105B90008DF80000009800F00100207002A80AF0C3
:105BA00057FE28704FF0010800BF404604B0BDE822
:105BB000F0872DE9F84305460C4601260027002012
:105BC000206000BF4FF0FF38781C0746042801DD35
:105BD00000BF17E001216846A8478046B8F1010FD1
:105BE00000D00FE09DF8001001F07F01206801FB5C
:105BF00006002060F6019DF8000000F080000028FB
:105C0000E0D100BF3846BDE8F883000070B5044617
:105C10000D460348046029460248FFF7CAFF70BDDD
:105C2000F4010020A18D000830B50246002300BF1A
:105C30000846CD1701EB5565ED11A1EBC515ECB28A
:105C4000CD1701EB5565E911002901DD44F0800411
:105C500018465B1C14540029EADC184630BD0000CD
:105C6000401C802801DA401C0AE0B0F5804F01DAC0
:105C7000801C05E00349884201DAC01C00E0001DD9
:105C800070470000FFFF1F002DE9FE4305460E464A
:105C90001446029500200190009000274FF0FF3835
:105CA000204600F0A5F807468146FFF7D9FFB0422D
:105CB00002DD6FF001088FE000208DF804000198EC
:105CC00020F0F000103001909DF8041002A80CF0B4
:105CD0002FFB39460298FFF7A7FF0299084402906C
:105CE000207A042808D13EA102A80CF00DFB042163
:105CF00002A80CF01DFB07E03BA102A80CF004FB7E
:105D0000032102A80CF014FB00208DF80000A17EF6
:105D1000009861F341000090E07E08B1012100E0AD
:105D20000021009861F3820000900098C0F3800089
:105D300058B194F83D10009861F3C400009094F8B5
:105D40003C10009861F345100090206C08B9A06CDD
:105D500020B1009820F0800080300090E06C08B9FD
:105D6000606D20B1009820F04000403000909DF818
:105D7000001002A80CF0DCFA218B02A80CF0DEFA6D
:105D800002A8D4E90423E1680CF0F0FAE07E58B1EF
:105D900002A8D4E90A23616A0CF0E8FA02A8D4E95F
:105DA0000D23216B0CF0E2FA0098C0F3C01028B16B
:105DB00002A8D4E91123216C0CF0D8FA0098C0F3A2
:105DC000801028B102A8D4E91423E16C0CF0CEFABB
:105DD0000298A0EB050800BF4046BDE8FE83000026
:105DE0004D515454000000004D514973647000003F
:105DF00070B504460025207A032801D10C2503E064
:105E0000207A042800D10A25D4E90412E06800F0C1
:105E10002AF8801C0544E07E68B1D4E90A12606A61
:105E200000F021F8861CD4E90D12206B00F01BF85D
:105E30003044801C0544206C08B9A06C30B1D4E912
:105E40001112206C00F00FF8801C0544E06C08B9BA
:105E5000606D30B1D4E91412E06C00F004F8801CDD
:105E60000544284670BD37B50024009820B100983D
:105E7000FDF774F8044600E0019C20463EBD00F0AA
:105E80004FF800F04DF8000070B5002100230F22FC
:105E9000C47804B3154C246804F4E064C4F5E064E9
:105EA000210AC1F10403CA40447804FA03F184785A
:105EB0001440214309010E4C0678A155047804F0E2
:105EC0001F050124AC4005786D11AD0005F1E025FA
:105ED000C5F8004109E0047804F01F050124AC4036
:105EE000044D0678761145F8264070BD0CED00E0B3
:105EF00000E400E080E100E002490143024A116051
:105F0000704700000000FA050CED00E0024A0A406C
:105F10000243024B1A60704780FFFF1F08ED00E04C
:105F20000648006800F4E06005490843001D034985
:105F30000860BFF3408F00BFFEE700000CED00E0FB
:105F40000000FA0510B50E480068C0B90D48006899
:105F5000FCF7D1FD0C490860084600680B49086051
:105F60000948006800EB4000094901EBC0000949FD
:105F700008600846006808490860FCF780FD10BD0D
:105F80003801002058010020400100203C01002081
:105F9000B81F0020480100204401002070B50446CD
:105FA00010464FF080750560051F28462C606FF085
:105FB0000106051F28462E604FF01236051F2846A1
:105FC0002E604FF00336051F28462E604FF0023634
:105FD000051F28462E607610051F28462E60051FD7
:105FE000284629604FF01136051F28462E604FF0D5
:105FF0001036051F28462E604FF00936051F28462B
:106000002E604FF00836051F28462E604FF00736E9
:10601000051F28462E604FF00636051F28462E60C5
:106020004FF00536051F28462E604FF00436051F39
:1060300028462E6070BD000010B5FCF719FD04461F
:1060400006480078401C0549087005480078054955
:1060500008702046FCF710FD10BD00005401002020
:10606000400100205C01002070B52025FCF700FDF8
:1060700004460A48007820B108480078401E0749C5
:1060800008700648007810B920200549087020469D
:10609000FCF7F2FC02F080F970BD00005401002012
:1060A0005C01002030B5034602EB4200084C44F886
:1060B000301002EB420004EBC00043604FF00040A0
:1060C00002EB4204024D05EBC404E060002030BD49
:1060D000B81F002029B1064AD2690243044BDA6195
:1060E00004E0034AD2698243014BDA617047000041
:1060F0000010024029B1064A12690243044B1A619A
:1061000004E0034A12698243014B1A6170470000A0
:106110000010024029B1064A92690243044B9A6179
:1061200004E0034A92698243014B9A617047000080
:106130000010024029B1064AD2680243044BDA60DB
:1061400004E0034AD2688243014BDA6070470000E2
:106150000010024030B500210022002400232D4D04
:106160006D6805F00C0121B1042905D0082923D15F
:1061700005E0294D056022E0274D05601FE0254D13
:106180006D6805F47012234D6D6805F480340225A6
:1061900005EB92421CB9214D554305600BE01D4DA6
:1061A0006D6805F400351DB11C4D5543056002E0D6
:1061B000194D5543056002E0174D056000BF00BF53
:1061C000144D6D6805F0F0010909154D6B5C05680B
:1061D000DD4045600F4D6D6805F4E061090A104D22
:1061E0006B5C4568DD4085600A4D6D6805F4605163
:1061F000C90A0B4D6B5C4568DD40C560054D6D6897
:1062000005F44041890B074D6B5CC568B5FBF3F5A0
:10621000056130BD0010024000127A0000093D0007
:10622000DE010020EE01002000210B4A11700A4A15
:10623000203A82F82010012802D0042808D103E077
:106240000121054A117004E00521034A117000E0A4
:1062500000BF00BF704700002010024070B5044628
:106260000D460F4800780F490968884201D0002088
:1062700070BD0DB90020FBE70BE000BF80210A488C
:1062800002F0B8F90028F9D020780749091D0880E4
:10629000641C2800A5F10101CDB2EED100BFE7E7F3
:1062A00090000020400100200038014070B50546F4
:1062B0000E4600240B48008838B100BF03E00020E0
:1062C0002855601C84B2B442F9DB002404E0FEF7D8
:1062D00003FF2855601C84B2024800880028F6D1CC
:1062E000204670BD980000202DE9F04105460E467D
:1062F000002400BF03E000202855601C84B2B44293
:10630000F9DB002442F2107809E0A8F101001FFA3D
:1063100080F8B8F1000F02D10020BDE8F0812148DB
:1063200000780028F1D020480068002838D00024E8
:1063300000270CE001F012F8FF2804D101F022F848
:10634000FF2800D105E0FEF7C7FE781C87B2322F88
:10635000F0DB00BF002410E0FEF7BEFE2855601CF5
:1063600084B2B44200D10CE000F0F8FFFF2804D161
:1063700001F008F8FF2800D103E00C48008800284D
:10638000EAD100BF0948008850B9002008490880B8
:10639000084908600849088001200849C1F89401AB
:1063A0002046BAE79A0000202001214298000020F0
:1063B0009200002094012742940000200000274210
:1063C00010B586B0044601210420FFF7A3FE012189
:1063D0008803FFF79FFE464802F0BEF84FF4807036
:1063E000ADF8140004208DF8170003208DF8160076
:1063F00005A94048FEF70AFD4FF480713D48FEF7BD
:10640000DFFD4FF40060ADF8140010208DF8170088
:1064100003208DF8160005A93648FEF7F7FC4FF467
:1064200000613448FEF7CAFD4FF48050ADF8140007
:1064300010208DF8170003208DF8160005A92D48AF
:10644000FEF7E4FC4FF480512A48FEF7B7FD4FF405
:106450000070ADF8140002208DF8160018208DF899
:10646000170005A92348FEF7D1FC4FF48060ADF872
:10647000140004208DF8170005A91E48FEF7C6FC7D
:1064800025208DF8000000208DF801008DF8020015
:1064900001208DF803006846FFF7F6FC0194002008
:1064A000ADF80800ADF80A00ADF80C00ADF810002A
:1064B0000C20ADF80E0000210D4802F040F80C4809
:1064C00002F04AF801A90A4802F0F0F8012240F26D
:1064D0002551074802F0C5F8012240F22441044842
:1064E00002F0BFF80121024802F029F806B010BD01
:1064F00000380140000801401FB504464FF4165013
:10650000FFF75EFF01201F4908601F49C1F8AC0179
:10651000642004F089F81DA103C9CDE902018DF8BA
:106520000C401CE0062102A8FFF798FE4FF4FA7019
:1065300004F07AF800200090019006216846FFF7E9
:10654000B5FE694613A00AF08DFA00B108E09DF887
:1065500004009DF80C10884200D101E000BFE1E783
:1065600000BF0020074908600749C1F8AC0164205A
:1065700004F05AF84FF4E130FFF722FF002004B096
:1065800010BD0000B001214200002142C200003ACB
:10659000144000004F4B0000202801D20149087030
:1065A00070470000900000202DE9F04780460D461E
:1065B0002621404600F0D6F8064616B90020BDE870
:1065C000F08740F2B450864200DD0646282140465E
:1065D00000F0C8F80746B946C7F30A0710213A4841
:1065E000FEF7ECFC384600F0C1FB182101EB481126
:1065F000C8B200F0ABFB354800F03BFD00F0FF0AED
:10660000B819B0F5006F11DA00240CE0002000F09A
:106610009DFB2E4800F02DFD00F0FF0A85F800A03C
:106620006D1C601C84B2B442F0DB39E0C7F5006039
:1066300087B200240CE0002000F088FB234800F023
:1066400018FD00F0FF0A85F800A06D1C601C84B2E4
:10665000BC42F0DB10211C48FEF7B2FC10211A48A6
:10666000FEF7ACFC002000F081FB182101EB481183
:10667000C8B200F06BFB154800F0FBFC00F0FF0A0D
:106680000CE0002000F062FB104800F0F2FC00F08B
:10669000FF0A85F800A06D1C601C84B2B442F0DBD8
:1066A00010210948FEF78CFC09EB06001FFA80F95F
:1066B0004A462821404602F073FA40220121404612
:1066C00002F050FA30467AE70008014000300140FD
:1066D00070B5044610210D48FEF770FC204600F00E
:1066E00045FB012000F032FB094800F0C2FCC5B2B6
:1066F000002000F02BFB064800F0BBFCC5B21021C7
:106700000248FEF75DFC284670BD0000000801400D
:106710000030014070B504460D4610210F48FEF7C9
:106720004DFC284600F022FB082101EB4411C9B2C0
:1067300041F0010000F00AFB094800F09AFCC6B2E3
:10674000002000F003FB064800F093FCC6B21021C5
:106750000248FEF735FC304670BD000000080140DD
:106760000030014070B505460E4610211548FEF771
:1067700025FC304600F0FAFA082101EB4511C9B2B8
:1067800041F0020000F0E2FA0F4800F072FC04460B
:10679000002000F0DBFA0C4800F06BFC04460020FF
:1067A00000F0D4FA4FF6FF7000EA0424064800F027
:1067B00060FC204484B210210248FEF701FC204610
:1067C00070BD0000000801400030014008B5012103
:1067D0000820FFF79FFC0420ADF8000010208DF882
:1067E000030002208DF8020069460448FEF70EFB04
:1067F00004210248FEF7E4FB08BD0000000C014044
:1068000008480078401C074908700846007864284A
:1068100006DD0020087004480068401C024908603A
:1068200070470000340100203001002010B5012025
:1068300002490860FF2000F0ABF910BD9801224228
:1068400070B5054601220021092000F0EAF904464E
:1068500024B91021284600F055F90446FFF7E6FF59
:106860000CB1012070BD0020FCE770B505464FF665
:10687000FF7401E0601E84B2FF2000F089F9A84295
:1068800001D0002CF6D10CB9FF2070BD0020FCE730
:106890007FB56846FFF7D4FF10B1002004B070BD8B
:1068A0009DF8000000F0C000402809D19DF80900C3
:1068B0009DF8081000EB0120401C84B2A50220E0E6
:1068C0009DF8050000F00F009DF80A1000EBD110B4
:1068D0009DF8091001F0030100EB4100861C9DF8B2
:1068E000080080119DF8071000EB81009DF806104C
:1068F00001F0030100EB8120441CA6F1090004FA19
:1069000000F52846CAE70000F8B500F021F900F0CC
:106910004AF9002504E0FF2000F03AF9681C85B22E
:106920000A2DF8DB142600BF95220021084600F04E
:1069300078F90446012C04D03000A6F101018EB292
:10694000F2D1002051490870012C4AD187224FF41E
:10695000D571082000F065F9012847D1002506E02F
:10696000FF2000F015F90DF80500681C85B2042D14
:10697000F6DB9DF80200012879D19DF80300AA28D2
:1069800075D14FF6FE7600BF01220021372000F0BE
:1069900048F901229107292000F043F9044624B167
:1069A0003000A6F101018EB2EED1002E5FD001229F
:1069B00000213A2000F035F9002858D1002506E0E2
:1069C000FF2000F0E5F80DF80500681C85B2042DE5
:1069D000F6DB9DF8000000F0400018B106202B49BE
:1069E000087044E004202949087040E00122002199
:1069F000372000F016F901220021292000F011F9BA
:106A00000446012C17DC0220204908704FF6FE7660
:106A100000BF01220021372000F003F901220021EC
:106A2000292000F0FEF80446BCB13000A6F10101B7
:106A30008EB2EED111E00120144908704FF6FE76B7
:106A400000BF01220021104600F0EBF8044624B1FB
:106A50003000A6F101018EB2F3D12EB10122510214
:106A6000102000F0DEF810B1002008490870FFF790
:106A7000DDFE00F093F80548007808B10020F8BD6D
:106A80000CB12046FBE7AA20F9E70000E600002051
:106A90002DE9F04106460F461546194800780628AC
:106AA00000D07F02012D0CD101223946112000F0C7
:106AB000B8F80446FCB96902304600F023F80446F1
:106AC00019E001223946122000F0ABF8044600BF5D
:106AD0004FF40071304600F015F8044606F50076D4
:106AE000681EC0B2050001D0002CF1D001220021A7
:106AF0000C2000F096F8FFF799FE2046BDE8F081E3
:106B0000E600002070B504460D46FE20FFF7ADFEFE
:106B100008B1012070BD04E0FF2000F07FF9207073
:106B2000641C2800A5F101018DB2F5D1FF2000F011
:106B30002FF8FF2000F02CF80020EBE710B500F054
:106B400032F8FF2000F024F800F028F810BD000013
:106B500008B501211020FFF7DDFA10208DF80300A1
:106B600003208DF802004020ADF800006946064879
:106B7000FEF74CF940210448FEF722FA00F004F930
:106B800001200249086008BD00100140980122421E
:106B900010B50446204600F041F910BD10B50020A4
:106BA00000F066F910BD10B5382000F061F910BD95
:106BB00010B500200549086000F06FF808B9002002
:106BC00010BDFFF733FE0120FAE7000098012242D2
:106BD00070B506460D4600F060F808B1012070BDA2
:106BE0002846FFF7D5FFFD2D19D0002404E0305DC5
:106BF00000F014F9601C84B2B4F5007FF7DBFF20CD
:106C0000FFF7C6FFFF20FFF7C3FFFF20FFF7C0FF1E
:106C1000044604F01F00052801D00220DFE7002011
:106C2000DDE72DE9F04105460C4617464FF0000818
:106C3000FFF7FCFDFFF7BCFF10B1FF20BDE8F081BE
:106C400045F04000FFF7A4FF200EFFF7A1FFC4F3BB
:106C50000740FFF79DFFC4F30720FFF799FFE0B25D
:106C6000FFF796FF3846FFF793FF0C2D02D1FF2068
:106C7000FFF78EFF4FF01F0800BFFF20FFF788FFD0
:106C8000064606F0800030B15FEA0800A8F1010175
:106C900001F0FF08F1D13046D0E710B5002400BF65
:106CA000FF20FFF775FFFF2801D1002010BD641CF5
:106CB0006FF07F408442F3D30120F7E72DE9F041E4
:106CC00006460F46154620480078062800D07F0269
:106CD000012D0CD1012239461820FFF7A2FF0446EE
:106CE0006CBBFE213046FFF773FF044627E01648D1
:106CF0000078012809D0012200213720FFF791FFF9
:106D0000012229461720FFF78CFF0122394619205E
:106D1000FFF787FF044694B900BFFC213046FFF718
:106D200057FF044606F50076681EC0B2050001D084
:106D3000002CF2D0FD210020FFF74AFF0446FFF7A8
:106D400075FD2046BDE8F081E600002010B5044640
:106D50002146054800F090F900BF0221024800F0EA
:106D60007FF90028F9D010BD0030014070B504460D
:106D70002546E11704EB1161C1F30720FFF7E6FF99
:106D8000E0B2FFF7E3FF70BD00B587B00121082036
:106D9000FFF7C0F901218803FFF79CF94FF4604029
:106DA000ADF8180018208DF81B0003208DF81A008C
:106DB00006A91848FEF72AF84FF460411548FEF777
:106DC000FFF80020ADF804004FF48270ADF8060023
:106DD0000020ADF808000220ADF80A000120ADF84F
:106DE0000C004002ADF80E003820ADF81000002075
:106DF000ADF812000720ADF8140001A9064800F014
:106E00003DF90121044800F047F8FF2000F006F8A2
:106E100007B000BD000C01400038004070B50546C9
:106E2000002405E0601CC4B2C82C01DD002070BD48
:106E300002210E4800F014F90028F3D029460B482F
:106E400000F01AF9002405E0601CC4B2C82C01DD72
:106E50000020ECE70121054800F002F90028F3D0FA
:106E6000024800F006F9C0B2E1E700000038004037
:106E700010B50446074800884FF6C7710840054919
:106E8000088008460088204308800121014800F05E
:106E900003F810BD0038004021B1028842F04002E2
:106EA000028004E002884FF6BF731A4002807047E8
:106EB00000B587B0012141F20500FFF72BF9E02072
:106EC000ADF8180003208DF81A0018208DF81B006B
:106ED00006A91E48FDF79AFFE0211C48FEF770F84E
:106EE0001020ADF8180003208DF81A0010208DF83E
:106EF0001B0006A91548FDF789FF10211348FEF76E
:106F00005FF80020ADF804004FF48270ADF8060081
:106F10000020ADF80800ADF80A00ADF80C004FF401
:106F20000070ADF80E000020ADF81000ADF81200B2
:106F30000720ADF8140001A9054800F09FF80121D1
:106F40000348FFF7A9FF07B000BD0000000801409B
:106F50000030014008B501210820FFF7DBF80121CE
:106F60000846FFF7D7F801211248FDF7DBFFB020F4
:106F7000ADF8000010208DF8030003208DF802000A
:106F800069460D48FDF742FF4020ADF8000048205B
:106F90008DF8030003208DF8020069460648FDF7CE
:106FA00035FFF0210448FEF70BF800F035F80349EF
:106FB000088008BD00023000000C0140E8000020FD
:106FC0002DE9F04106460C461746FFF735F800203C
:106FD00010490860032001F053FCC4F3074001F09E
:106FE0004FFCC4F3072001F04BFCE0B201F048FC79
:106FF000002505E0FF2001F043FC7055681C85B2B8
:10700000BD42F7DB012003490860FFF72DF8BDE81A
:10701000F08100009C81214210B5002400200E491F
:107020000860902001F02CFC002001F029FC0020D9
:1070300001F026FC002001F023FCFF2001F020FCE1
:1070400044EA0024FF2001F01BFC04430120034913
:10705000C1F89C01204610BD9C8121420080214244
:107060000246002013890B400BB1012000E00020F4
:1070700070470146888970478181704710B50022AA
:10708000028802F441520B884C8823438C882343A6
:10709000CC8823430C8923434C8923438C89234385
:1070A000CC8923431A430280838B4FF2FF74234021
:1070B00083830B8A038210BD2DE9F04107460D46FC
:1070C0001646FEF7B9FF002407E0384600F00BF83B
:1070D00025F81400BF1C601C84B2B442F5DBFEF737
:1070E000C3FFBDE8F0810146088870472DE9F74FDE
:1070F00082B080461646FEF79FFF8149098889B213
:10710000FF2902D84FF4806101E04FF40061084686
:1071100007F018FD074627B9FEF7A6FF05B0BDE842
:10712000F08FB8F1006F07D375480088000480091C
:1071300000F10060404500D8F0E7FDF727FEA8F118
:10714000006B6F48008880B2FF2802D84FF480603F
:1071500001E04FF40060BBFBF0F96948008880B2A1
:10716000FF2802D84FF4806001E04FF40060BBFBC1
:10717000F0F100FB11B04FEA500A6149098889B269
:10718000FF2902D84FF4806101E04FF40061084606
:1071900001EBD071CAEB61018CB2A64200DC34462F
:1071A000A2E05749098889B2FF2902D84FF48061CB
:1071B00001E04FF40061019101EBD171C1F34F0285
:1071C0004F49098889B2FF2902D84FF4806101E054
:1071D0004FF4006101FB09F101F100603946FFF74E
:1071E0006BFF00250AE00AEB050037F810004FF6A8
:1071F000FF71884200D003E0681C85B2A542F2DB33
:1072000000BFA5423DDA3E49098889B2FF2902D86C
:107210004FF4806101E04FF4006101FB09F101F1DD
:107220000060FDF749FD002508E0039830F81500DF
:1072300005EB0A0127F81100681C85B2A542F4DBB2
:107240002F49098889B2FF2902D84FF4806101E0F3
:107250004FF40061019101EBD171C1F34F02284954
:10726000098889B2FF2902D84FF4806101E04FF408
:10727000006101FB09F101F10060394600F042F8BC
:1072800004E022464046039900F03CF8A64200D1B3
:107290002BE009F101094FF0000A039800EB4400CC
:1072A0000390A044301B86B21549098889B2FF2992
:1072B00002D84FF4806101E04FF4006101EBD1711D
:1072C000B6EB610F0FDD0E49098889B2FF2902D89C
:1072D0004FF4806101E04FF40061084601EBD0718A
:1072E000C1F34F0400E034465BE700BFFDF724FD27
:1072F000384607F013FCFEF7B7FE00BF0EE70000AC
:10730000E0F7FF1F2DE9F04105460E461746002421
:1073100007E036F814102846FDF718FDAD1C601C78
:1073200084B2BC42F5DBBDE8F081704710B5C822DD
:1073300002490348FFF7DAFE10BD0000581B002089
:1073400028FC030810B5142202490348FFF7CEFEBB
:1073500010BD0000301B002000FC0308074909880D
:10736000322904DA0649054A1288885C05E00021C2
:10737000024A118002491288885C704792000020FE
:10738000AF1A0020064A1278521CD1B2322902DA12
:10739000044A505C02E00021024A505C7047000041
:1073A00092000020AF1A002010B500F001F810BDC7
:1073B0000CB50020019000903348006840F4803004
:1073C0003149086000BF3048006800F40030009088
:1073D0000198401C0190009818B90198B0F5A06F71
:1073E000F1D12948006800F4003010B1012000906C
:1073F00001E0002000900098012843D12348006854
:1074000040F01000214908600846006820F00300A1
:1074100008600846006840F0020008601A484068AA
:10742000194948600846406848600846406840F48A
:10743000806048600846406820F47C104860084638
:10744000406840F4E81048600846006840F08070EA
:10745000086000BF0C48006800F000700028F9D0F8
:107460000948406820F00300074948600846406822
:1074700040F00200486000BF0348406800F00C0084
:107480000828F9D10CBD0000001002400020024085
:1074900030B502460020012005E00024134B23F8FC
:1074A0001040431C98B26428F7DB00201AE000EB80
:1074B00040035B1CD35C00EB4004145D43EA0424EE
:1074C000022303EB4005094B23F8154000EB400372
:1074D0009B1CD45C032303EB4005044B23F81540AD
:1074E000431C98B28842E2DB30BD0000581B0020EC
:1074F0001CB5FEF745FA2C480188142005F040F928
:10750000642003F0ADF828484188152005F038F9CB
:10751000642003F0A5F824488188162005F030F98E
:10752000642003F09DF82048C188172005F028F951
:10753000642003F095F81C480189182005F020F913
:10754000642003F08DF818488189192005F018F996
:10755000642003F085F81448C1891A2005F010F959
:10756000642003F07DF81048018A1B2005F008F91B
:10757000642003F075F80C48418A1C2005F000F9DE
:10758000642003F06DF809A103C9CDE900010648A4
:10759000007D8DF8070008216846FEF75DF864203D
:1075A00003F05EF81CBD0000301B00205AA50582C8
:1075B000100900000149088570470000301B0020B9
:1075C0000146002906DB1F2904DC0348A0F88E11C0
:1075D000002070470120FCE7301B002010B5014659
:1075E000002000BF07E00C5C00F1B402034B23F85D
:1075F0001240421C90B21028F5DB10BD581B002031
:1076000000B589B0142104A8FBF7ABFD002003905E
:1076100014209649487107219448FEF71DF814205C
:1076200003F002F803A904A8FDF7F6FF9DF8150082
:1076300014280BD1BDF80C00092807D19DF81800BB
:107640009DF8171040EA0120894908800020039026
:1076500015208649487107218448FDF7FDFF142055
:1076600002F0E2FF03A904A8FDF7D6FF9DF815007C
:1076700015280BD1BDF80C00092807D19DF818007A
:107680009DF8171040EA01207949488000200390B6
:1076900016207649487107217448FDF7DDFF142054
:1076A00002F0C2FF03A904A8FDF7B6FF9DF815007C
:1076B00016280BD1BDF80C00092807D19DF8180039
:1076C0009DF8171040EA0120694988800020039046
:1076D00017206649487107216448FDF7BDFF142053
:1076E00002F0A2FF03A904A8FDF796FF9DF815007C
:1076F00017280BD1BDF80C00092807D19DF81800F8
:107700009DF8171040EA01205949C88000200390D5
:1077100018205649487107215448FDF79DFF142051
:1077200002F082FF03A904A8FDF776FF9DF815007B
:1077300018280BD1BDF80C00092807D19DF81800B6
:107740009DF8171040EA0120494908810020039064
:1077500019204649487107214448FDF77DFF142050
:1077600002F062FF03A904A8FDF756FF9DF815007B
:1077700019280BD1BDF80C00092807D19DF8180075
:107780009DF8171040EA01203949888100200390B4
:107790001A203649487107213448FDF75DFF14204F
:1077A00002F042FF03A904A8FDF736FF9DF815007B
:1077B0001A280BD1BDF80C00092807D19DF8180034
:1077C0009DF8171040EA01202949C8810020039044
:1077D0001B202649487107212448FDF73DFF14204E
:1077E00002F022FF03A904A8FDF716FF9DF815007B
:1077F0001B280BD1BDF80C00092807D19DF81800F3
:107800009DF8171040EA01201949088200200390D2
:107810001C201649487107211448FDF71DFF14204C
:1078200002F002FF03A904A8FDF7F6FE9DF815007B
:107830001C280BD1BDF80C00092807D19DF81800B1
:107840009DF8171040EA012009494882FFF77AFDA8
:10785000002000900190029006208DF800006946FB
:10786000072009F0EFFE09B000BD000086010020EE
:10787000301B002010B5044640F2B4521221002003
:1078800001F08EF940F2B4521221012001F088F982
:1078900040F2B4521221022001F082F910BD10B55D
:1078A000044602220021204601F05CF90122114623
:1078B000204601F057F90520FDF74AF8032120463C
:1078C000FEF728FF222806D010220121204601F0D1
:1078D00049F9002010BDFF20FCE70000FDF729FF5B
:1078E0004FF47A7002F0A0FE00BF0748006800F471
:1078F000E06006490843001D03490860BFF3408F5C
:1079000000BF00BFFEE700000CED00E00000FA053C
:1079100010B500F05FF807F0B3FA08B1FEF792F87F
:1079200010BD042808D14FF0E021096941F004019D
:107930004FF0E022116107E04FF0E021096921F0EA
:1079400004014FF0E02211617047000010B50024DF
:1079500000BF20E004EB44001B4901EBC00080683D
:10796000B8B104EB440001EBC0008068401E04EB9A
:107970004401154A02EBC101886004EB4400114642
:1079800001EBC000806820B94FF00041204600F0B4
:107990006FFA601CC4B2202CDCDB0C48007870B19C
:1079A0000B480088401C0A49088008460088B0F54A
:1079B000FA7F07DB00200880FEF756FB02E000207C
:1079C0000349088010BD0000B81F002054010020AA
:1079D000DC01002010B50C48006840F4E0200A49A2
:1079E00008604FF420514FF00060FEF78FFA4FF41B
:1079F000A060FEF781FA00F061F800F0B9F8FCF73A
:107A0000CFFCFFF7A7FA10BD24ED00E010B5134836
:107A1000006840F0010011490860084640681049BC
:107A200008400E494860084600680E4908400B4966
:107A300008600846006820F4802008600846406816
:107A400020F4FE0048604FF41F008860FFF7ACFC94
:107A50004FF000600449086010BD000000100240B3
:107A60000000FFF8FFFFF6FE08ED00E010B5012171
:107A7000064800F0BCF840B10121044800F0A8F825
:107A80000348006808B1FCF7A9FD10BD00040040E0
:107A9000B800002010B50121074800F0A8F848B14F
:107AA0000121054800F094F8FDF71CFCFDF7DCFB14
:107AB000FEF7A6FE10BD00000008004030B589B0FA
:107AC000FF241B2501210220FEF704FB0920ADF84D
:107AD0001C004720ADF818000020ADF81E00ADF8DE
:107AE0001A0006A9214800F043F9012211461F4857
:107AF00000F08EF81D208DF8140000208DF8150080
:107B00008DF8160001208DF8170005A8FEF7BCF9C6
:107B10007020ADF804000120ADF806000220ADF899
:107B20000C000020ADF80A0001A9104800F0D4F8BC
:107B300008210E4800F00EF97020ADF80400012075
:107B4000ADF806000220ADF80C000020ADF80A00E8
:107B500001A9064800F066F80821044800F0B2F8D0
:107B60000121024800F037F809B030BD00040040A0
:107B70001FB501210420FEF7ADFA6320ADF808001F
:107B800041F61F40ADF804000020ADF80A00ADF842
:107B9000060001A90D4800F0EBF8012211460B4840
:107BA00000F036F81E208DF8000000208DF801004E
:107BB00003208DF8020001208DF803006846FEF7CF
:107BC00063F90121014800F006F81FBD00080040DC
:107BD000CA430282704721B1028842F0010202804A
:107BE00004E002884FF6FE731A400280704730B5F9
:107BF0000246002000230024158A05EA0103958926
:107C000005EA010413B10CB1012000E0002030BDF1
:107C10001AB183890B43838102E083898B4383817B
:107C20007047000070B5002400220023058C4FF639
:107C3000FF6635400584028C8388848B4FF68F75F0
:107C40002C404FF6FC752C400D882C434FF6FF5509
:107C50002A400D894FF6FF7606EA05252A434D880E
:107C600006EA05252A43154DA84202D0144DA84224
:107C70001DD14FF2FF752A404D894FF6FF7606EA77
:107C800005252A434FF6FF352A408D8806EA05254B
:107C90002A434EF6FF752B404DF6FF752B408D891C
:107CA00006EA05152B43CD8906EA05152B4383808B
:107CB0008483CD888587028470BD0000002C01403C
:107CC000003401400A460021818B4FF6F7731940BA
:107CD000114381837047000070B500220023002407
:107CE000058C4EF6FF7635400584038C8488828BA4
:107CF00048F6FF752A404FF6FF452A400D884FF69B
:107D0000FF7606EA05252A434DF6FF752B400D89BF
:107D100006EA05352B434D8806EA05352B430B4D06
:107D2000A84202D00A4DA84208D14BF6FF752C405C
:107D30008D894FF6FF7606EA85152C438480828371
:107D4000CD88A0F84050038470BD0000002C014095
:107D5000003401400A460021818B4FF2FF73194025
:107D60004FF6FF7303EA0223194381837047000033
:107D7000002202881D4B98420ED01D4B98420BD01A
:107D8000B0F1804F08D01B4B984205D01A4B984257
:107D900002D01A4B984204D14FF68F731A404B8889
:107DA0001A43174B984207D0164B984204D04FF60F
:107DB000FF431A40CB881A4302808B8883850B8847
:107DC00003850A4B98420BD0094B984208D00E4BC2
:107DD000984205D00D4B984202D00D4B984201D1EC
:107DE0000B7A03860123838270470000002C014038
:107DF000003401400004004000080040000C004036
:107E000000100040001400400040014000440140C8
:107E10000048014070B520242025FAF729FE0646C7
:107E20001048056800200F49096801EB41010E4A1E
:107E300002EBC101C8600B49087800F01DF930461B
:107E4000FAF71AFE00F0A8FA00BF084800680028F8
:107E5000FBD00448006800EB4000034901EBC00080
:107E6000C06870BD40010020B81F002058010020EC
:107E70002DE9F04104460E46202C01D3BDE8F081E7
:107E80002025FAF7F5FD074604EB44001F4901EBF6
:107E9000C0004068A8B104EB440001EBC000C0681A
:107EA000304304EB4401194A02EBC101C86004EB02
:107EB0004400114601EBC000006910B9204600F0F3
:107EC000B1F83846FAF7D8FD1148007800B1D5E787
:107ED000FAF7CEFD07460F480068FAF70CFE054694
:107EE0000D48006885420CD2202D0AD20A48056050
:107EF00005EB4500054901EBC00008490860FAF7A9
:107F0000D6FD3846FAF7B8FD00BFB7E7B81F002026
:107F100054010020580100204001002048010020A9
:107F200070B50446202C01D3002070BDFAF7A0FDE7
:107F3000054604EB4400094901EBC0000069401C00
:107F400004EB4401054A02EBC1010861E0B200F014
:107F500093F82846FAF790FD0120E6E7B81F0020C5
:107F600070B50446202C01D3002070BDFAF780FDC7
:107F7000054604EB4400104901EBC000006958B10C
:107F800004EB440001EBC0000069401E04EB440117
:107F9000094A02EBC101086104EB4400064901EB08
:107FA000C000006910B9E0B200F03CF82846FAF7CA
:107FB00063FD0120D9E70000B81F00202DE9F04142
:107FC00004460D46202C02D30020BDE8F081202677
:107FD000FAF74EFD074604EB4400114901EBC000DF
:107FE0004068A8B104EB440001EBC000C06828431E
:107FF00004EB44010A4A02EBC101C86004EB4400EF
:10800000114601EBC000006910B9204600F00AF8E3
:108010003846FAF731FD00F0BFF90120D5E700003E
:10802000B81F002070B50446202C01D3002070BD7D
:10803000FAF71EFD054604EB44000D4901EBC000B4
:10804000406878B14FF00040E0400A4909680843B1
:108050000849086003F0AAF904EB4401044A02EB62
:10806000C10148612846FAF707FD0120DFE700005B
:10807000B81F00205801002070B50446202C01D301
:10808000002070BDFAF7F4FC054604EB44000949F2
:1080900001EBC000406838B14FF00040E0400649B5
:1080A00009688143044801602846FAF7E5FC01208D
:1080B000E7E70000B81F0020580100202DE9F04F2D
:1080C00091B0AFA103C9CDE9090124208DF82900A1
:1080D000072109A8FDF7C0FA142002F0A5FA0BA9A0
:1080E0000CA8FDF799FA9DF83500242809D1BDF8B0
:1080F0002C00092805D19DF838009DF8371040EA7A
:10810000012425208DF82900072109A8FDF7A4FAEC
:10811000142002F089FA0BA90CA8FDF77DFA9DF84E
:108120003500252809D1BDF82C00092805D19DF876
:1081300038009DF8371040EA012526208DF82900E7
:10814000072109A8FDF788FA142002F06DFA0BA99F
:108150000CA8FDF761FA9DF83500262809D1BDF875
:108160002C00092805D19DF838009DF8371040EA09
:10817000012627208DF82900072109A8FDF76CFAB0
:10818000142002F051FA0BA90CA8FDF745FA9DF84E
:108190003500272809D1BDF82C00092805D19DF804
:1081A00038009DF8371040EA012728208DF8290073
:1081B000072109A8FDF750FA142002F035FA0BA99F
:1081C0000CA8FDF729FA9DF83500282809D1BDF83B
:1081D0002C00092805D19DF838009DF8371040EA99
:1081E000012829208DF82900072109A8FDF734FA74
:1081F000142002F019FA0BA90CA8FDF70DFA9DF84E
:108200003500292809D1BDF82C00092805D19DF891
:1082100038009DF8371040EA0129642094FBF0F102
:1082200000FB11400A2190FBF1F201FB12006421D6
:1082300094FBF1F201FB12410A2291FBF2F140EAB8
:1082400001101FFA80FA642095FBF0F100FB115039
:108250000A2190FBF1F201FB1200642195FBF1F27F
:1082600001FB12510A2291FBF2F140EA01101FFAC0
:1082700080FB642096FBF0F100FB11600A2190FB6B
:10828000F1F201FB1200642196FBF1F201FB126195
:108290000A2291FBF2F140EA011080B208906420BA
:1082A00097FBF0F100FB11700A2190FBF1F201FB4A
:1082B0001200642197FBF1F201FB12710A2291FB7B
:1082C000F2F140EA011080B20790642098FBF0F1CF
:1082D00000FB11800A2190FBF1F201FB12006421E6
